{
  "contracts/SSVNetwork.sol": {
    "SSVNetwork": {
      "abi": [
        {
          "anonymous": false,
          "inputs": [
            {
              "indexed": false,
              "internalType": "bytes",
              "name": "validatorPublicKey",
              "type": "bytes"
            },
            {
              "indexed": false,
              "internalType": "uint256",
              "name": "index",
              "type": "uint256"
            },
            {
              "indexed": false,
              "internalType": "bytes",
              "name": "operatorPublicKey",
              "type": "bytes"
            },
            {
              "indexed": false,
              "internalType": "bytes",
              "name": "sharedPublicKey",
              "type": "bytes"
            },
            {
              "indexed": false,
              "internalType": "bytes",
              "name": "encryptedKey",
              "type": "bytes"
            }
          ],
          "name": "OessAdded",
          "type": "event"
        },
        {
          "anonymous": false,
          "inputs": [
            {
              "indexed": false,
              "internalType": "string",
              "name": "name",
              "type": "string"
            },
            {
              "indexed": false,
              "internalType": "address",
              "name": "ownerAddress",
              "type": "address"
            },
            {
              "indexed": false,
              "internalType": "bytes",
              "name": "publicKey",
              "type": "bytes"
            }
          ],
          "name": "OperatorAdded",
          "type": "event"
        },
        {
          "anonymous": false,
          "inputs": [
            {
              "indexed": false,
              "internalType": "address",
              "name": "ownerAddress",
              "type": "address"
            },
            {
              "indexed": false,
              "internalType": "bytes",
              "name": "publicKey",
              "type": "bytes"
            },
            {
              "components": [
                {
                  "internalType": "uint256",
                  "name": "index",
                  "type": "uint256"
                },
                {
                  "internalType": "bytes",
                  "name": "operatorPublicKey",
                  "type": "bytes"
                },
                {
                  "internalType": "bytes",
                  "name": "sharedPublicKey",
                  "type": "bytes"
                },
                {
                  "internalType": "bytes",
                  "name": "encryptedKey",
                  "type": "bytes"
                }
              ],
              "indexed": false,
              "internalType": "struct IValidatorRegistry.Oess[]",
              "name": "oessList",
              "type": "tuple[]"
            }
          ],
          "name": "ValidatorAdded",
          "type": "event"
        },
        {
          "inputs": [
            {
              "internalType": "string",
              "name": "_name",
              "type": "string"
            },
            {
              "internalType": "address",
              "name": "_ownerAddress",
              "type": "address"
            },
            {
              "internalType": "bytes",
              "name": "_publicKey",
              "type": "bytes"
            }
          ],
          "name": "addOperator",
          "outputs": [],
          "stateMutability": "nonpayable",
          "type": "function"
        },
        {
          "inputs": [
            {
              "internalType": "address",
              "name": "_ownerAddress",
              "type": "address"
            },
            {
              "internalType": "bytes",
              "name": "_publicKey",
              "type": "bytes"
            },
            {
              "internalType": "bytes[]",
              "name": "_operatorPublicKeys",
              "type": "bytes[]"
            },
            {
              "internalType": "bytes[]",
              "name": "_sharesPublicKeys",
              "type": "bytes[]"
            },
            {
              "internalType": "bytes[]",
              "name": "_encryptedKeys",
              "type": "bytes[]"
            }
          ],
          "name": "addValidator",
          "outputs": [],
          "stateMutability": "nonpayable",
          "type": "function"
        },
        {
          "inputs": [],
          "name": "operatorCount",
          "outputs": [
            {
              "internalType": "uint256",
              "name": "",
              "type": "uint256"
            }
          ],
          "stateMutability": "view",
          "type": "function"
        },
        {
          "inputs": [],
          "name": "validatorCount",
          "outputs": [
            {
              "internalType": "uint256",
              "name": "",
              "type": "uint256"
            }
          ],
          "stateMutability": "view",
          "type": "function"
        }
      ],
      "evm": {
        "bytecode": {
          "linkReferences": {},
          "object": "608060405234801561001057600080fd5b50610c9d806100206000396000f3fe608060405234801561001057600080fd5b506004361061004b5760003560e01c8062f43a66146100505780630f43a677146100655780634df4c728146100805780637c6f315814610093575b600080fd5b61006361005e36600461095b565b61009c565b005b61006e60025481565b60405190815260200160405180910390f35b61006361008e366004610889565b6102b3565b61006e60005481565b60006001600160a01b0316600183836040516100b9929190610aa3565b908152604051908190036020019020600101546001600160a01b03161461013c5760405162461bcd60e51b815260206004820152602c60248201527f4f70657261746f7220776974682073616d65207075626c6963206b657920616c60448201526b72656164792065786973747360a01b60648201526084015b60405180910390fd5b604051806080016040528086868080601f0160208091040260200160405190810160405280939291908181526020018383808284376000920191909152505050908252506001600160a01b03851660208083019190915260408051601f8601839004830281018301825285815292019190859085908190840183828082843760009201829052509385525050506020909101526040516001906101e29085908590610aa3565b9081526020016040518091039020600082015181600001908051906020019061020c9291906106d6565b506020828101516001830180546001600160a01b0319166001600160a01b039092169190911790556040830151805161024b92600285019201906106d6565b50606082015181600301559050507f39b34f12d0a1eb39d220d2acd5e293c894753a36ac66da43b832c9f1fdb8254e8585858585604051610290959493929190610b7e565b60405180910390a16000805490806102a783610c40565b91905055505050505050565b603087146103035760405162461bcd60e51b815260206004820152601960248201527f496e76616c6964207075626c6963206b6579206c656e677468000000000000006044820152606401610133565b848314801561031157508481145b61035d5760405162461bcd60e51b815260206004820181905260248201527f4f455353206461746120737472756374757265206973206e6f742076616c69646044820152606401610133565b6001600160a01b0389166103ab5760405162461bcd60e51b815260206004820152601560248201527413dddb995c881859191c995cdcc81a5b9d985b1a59605a1b6044820152606401610133565b60006001600160a01b0316600389896040516103c8929190610aa3565b908152604051908190036020019020546001600160a01b0316146104445760405162461bcd60e51b815260206004820152602d60248201527f56616c696461746f7220776974682073616d65207075626c6963206b6579206160448201526c6c72656164792065786973747360981b6064820152608401610133565b600060038989604051610458929190610aa3565b9081526040519081900360200190209050610477600182018a8a61075a565b5080546001600160a01b0319166001600160a01b038b1617815560005b86811015610674578160020160405180608001604052808381526020018a8a858181106104d157634e487b7160e01b600052603260045260246000fd5b90506020028101906104e39190610bc0565b8080601f01602080910402602001604051908101604052809392919081815260200183838082843760009201919091525050509082525060200188888581811061053d57634e487b7160e01b600052603260045260246000fd5b905060200281019061054f9190610bc0565b8080601f0160208091040260200160405190810160405280939291908181526020018383808284376000920191909152505050908252506020018686858181106105a957634e487b7160e01b600052603260045260246000fd5b90506020028101906105bb9190610bc0565b8080601f016020809104026020016040519081016040528093929190818152602001838380828437600092018290525093909452505083546001818101865594825260209182902084516004909202019081558184015180519495919461062894509185019201906106d6565b50604082015180516106449160028401916020909101906106d6565b50606082015180516106609160038401916020909101906106d6565b5050508061066d90610c40565b9050610494565b506002805490600061068583610c40565b91905055507f8674c0b4bd63a0814bf1ae6d64d71cf4886880a8bdbd3d7c1eca89a37d1e92718a8a8a846002016040516106c29493929190610ab3565b60405180910390a150505050505050505050565b8280546106e290610c05565b90600052602060002090601f016020900481019282610704576000855561074a565b82601f1061071d57805160ff191683800117855561074a565b8280016001018555821561074a579182015b8281111561074a57825182559160200191906001019061072f565b506107569291506107ce565b5090565b82805461076690610c05565b90600052602060002090601f016020900481019282610788576000855561074a565b82601f106107a15782800160ff1982351617855561074a565b8280016001018555821561074a579182015b8281111561074a5782358255916020019190600101906107b3565b5b8082111561075657600081556001016107cf565b80356001600160a01b03811681146107fa57600080fd5b919050565b60008083601f840112610810578182fd5b50813567ffffffffffffffff811115610827578182fd5b6020830191508360208260051b850101111561084257600080fd5b9250929050565b60008083601f84011261085a578182fd5b50813567ffffffffffffffff811115610871578182fd5b60208301915083602082850101111561084257600080fd5b600080600080600080600080600060a08a8c0312156108a6578485fd5b6108af8a6107e3565b985060208a013567ffffffffffffffff808211156108cb578687fd5b6108d78d838e01610849565b909a50985060408c01359150808211156108ef578687fd5b6108fb8d838e016107ff565b909850965060608c0135915080821115610913578586fd5b61091f8d838e016107ff565b909650945060808c0135915080821115610937578384fd5b506109448c828d016107ff565b915080935050809150509295985092959850929598565b600080600080600060608688031215610972578081fd5b853567ffffffffffffffff80821115610989578283fd5b61099589838a01610849565b90975095508591506109a9602089016107e3565b945060408801359150808211156109be578283fd5b506109cb88828901610849565b969995985093965092949392505050565b81835281816020850137506000828201602090810191909152601f909101601f19169091010190565b8054600090600181811c9080831680610a1f57607f831692505b6020808410821415610a3f57634e487b7160e01b86526022600452602486fd5b83885260208801828015610a5a5760018114610a6b57610a96565b60ff19871682528282019750610a96565b60008981526020902060005b87811015610a9057815484820152908601908401610a77565b83019850505b5050505050505092915050565b8183823760009101908152919050565b6001600160a01b03851681526060602080830182905260009190610ada84830187896109dc565b6040858203818701528187548084528484019150848160051b850101898852858820885b83811015610b6b57601f198784030185526080825484528089850152610b2981850160018501610a05565b905083810387850152610b3f8160028501610a05565b90508381038a850152610b558160038501610a05565b9589019593505060049190910190600101610afe565b50909d9c50505050505050505050505050565b606081526000610b926060830187896109dc565b6001600160a01b03861660208401528281036040840152610bb48185876109dc565b98975050505050505050565b6000808335601e19843603018112610bd6578283fd5b83018035915067ffffffffffffffff821115610bf0578283fd5b60200191503681900382131561084257600080fd5b600181811c90821680610c1957607f821691505b60208210811415610c3a57634e487b7160e01b600052602260045260246000fd5b50919050565b6000600019821415610c6057634e487b7160e01b81526011600452602481fd5b506001019056fea264697066735822122016fcb6ea4e8196b05beb074f0f662e1fb412d7cbf3f63be24b18940dc6598a7e64736f6c63430008040033",
          "opcodes": "PUSH1 0x80 PUSH1 0x40 MSTORE CALLVALUE DUP1 ISZERO PUSH2 0x10 JUMPI PUSH1 0x0 DUP1 REVERT JUMPDEST POP PUSH2 0xC9D DUP1 PUSH2 0x20 PUSH1 0x0 CODECOPY PUSH1 0x0 RETURN INVALID PUSH1 0x80 PUSH1 0x40 MSTORE CALLVALUE DUP1 ISZERO PUSH2 0x10 JUMPI PUSH1 0x0 DUP1 REVERT JUMPDEST POP PUSH1 0x4 CALLDATASIZE LT PUSH2 0x4B JUMPI PUSH1 0x0 CALLDATALOAD PUSH1 0xE0 SHR DUP1 PUSH3 0xF43A66 EQ PUSH2 0x50 JUMPI DUP1 PUSH4 0xF43A677 EQ PUSH2 0x65 JUMPI DUP1 PUSH4 0x4DF4C728 EQ PUSH2 0x80 JUMPI DUP1 PUSH4 0x7C6F3158 EQ PUSH2 0x93 JUMPI JUMPDEST PUSH1 0x0 DUP1 REVERT JUMPDEST PUSH2 0x63 PUSH2 0x5E CALLDATASIZE PUSH1 0x4 PUSH2 0x95B JUMP JUMPDEST PUSH2 0x9C JUMP JUMPDEST STOP JUMPDEST PUSH2 0x6E PUSH1 0x2 SLOAD DUP2 JUMP JUMPDEST PUSH1 0x40 MLOAD SWAP1 DUP2 MSTORE PUSH1 0x20 ADD PUSH1 0x40 MLOAD DUP1 SWAP2 SUB SWAP1 RETURN JUMPDEST PUSH2 0x63 PUSH2 0x8E CALLDATASIZE PUSH1 0x4 PUSH2 0x889 JUMP JUMPDEST PUSH2 0x2B3 JUMP JUMPDEST PUSH2 0x6E PUSH1 0x0 SLOAD DUP2 JUMP JUMPDEST PUSH1 0x0 PUSH1 0x1 PUSH1 0x1 PUSH1 0xA0 SHL SUB AND PUSH1 0x1 DUP4 DUP4 PUSH1 0x40 MLOAD PUSH2 0xB9 SWAP3 SWAP2 SWAP1 PUSH2 0xAA3 JUMP JUMPDEST SWAP1 DUP2 MSTORE PUSH1 0x40 MLOAD SWAP1 DUP2 SWAP1 SUB PUSH1 0x20 ADD SWAP1 KECCAK256 PUSH1 0x1 ADD SLOAD PUSH1 0x1 PUSH1 0x1 PUSH1 0xA0 SHL SUB AND EQ PUSH2 0x13C JUMPI PUSH1 0x40 MLOAD PUSH3 0x461BCD PUSH1 0xE5 SHL DUP2 MSTORE PUSH1 0x20 PUSH1 0x4 DUP3 ADD MSTORE PUSH1 0x2C PUSH1 0x24 DUP3 ADD MSTORE PUSH32 0x4F70657261746F7220776974682073616D65207075626C6963206B657920616C PUSH1 0x44 DUP3 ADD MSTORE PUSH12 0x726561647920657869737473 PUSH1 0xA0 SHL PUSH1 0x64 DUP3 ADD MSTORE PUSH1 0x84 ADD JUMPDEST PUSH1 0x40 MLOAD DUP1 SWAP2 SUB SWAP1 REVERT JUMPDEST PUSH1 0x40 MLOAD DUP1 PUSH1 0x80 ADD PUSH1 0x40 MSTORE DUP1 DUP7 DUP7 DUP1 DUP1 PUSH1 0x1F ADD PUSH1 0x20 DUP1 SWAP2 DIV MUL PUSH1 0x20 ADD PUSH1 0x40 MLOAD SWAP1 DUP2 ADD PUSH1 0x40 MSTORE DUP1 SWAP4 SWAP3 SWAP2 SWAP1 DUP2 DUP2 MSTORE PUSH1 0x20 ADD DUP4 DUP4 DUP1 DUP3 DUP5 CALLDATACOPY PUSH1 0x0 SWAP3 ADD SWAP2 SWAP1 SWAP2 MSTORE POP POP POP SWAP1 DUP3 MSTORE POP PUSH1 0x1 PUSH1 0x1 PUSH1 0xA0 SHL SUB DUP6 AND PUSH1 0x20 DUP1 DUP4 ADD SWAP2 SWAP1 SWAP2 MSTORE PUSH1 0x40 DUP1 MLOAD PUSH1 0x1F DUP7 ADD DUP4 SWAP1 DIV DUP4 MUL DUP2 ADD DUP4 ADD DUP3 MSTORE DUP6 DUP2 MSTORE SWAP3 ADD SWAP2 SWAP1 DUP6 SWAP1 DUP6 SWAP1 DUP2 SWAP1 DUP5 ADD DUP4 DUP3 DUP1 DUP3 DUP5 CALLDATACOPY PUSH1 0x0 SWAP3 ADD DUP3 SWAP1 MSTORE POP SWAP4 DUP6 MSTORE POP POP POP PUSH1 0x20 SWAP1 SWAP2 ADD MSTORE PUSH1 0x40 MLOAD PUSH1 0x1 SWAP1 PUSH2 0x1E2 SWAP1 DUP6 SWAP1 DUP6 SWAP1 PUSH2 0xAA3 JUMP JUMPDEST SWAP1 DUP2 MSTORE PUSH1 0x20 ADD PUSH1 0x40 MLOAD DUP1 SWAP2 SUB SWAP1 KECCAK256 PUSH1 0x0 DUP3 ADD MLOAD DUP2 PUSH1 0x0 ADD SWAP1 DUP1 MLOAD SWAP1 PUSH1 0x20 ADD SWAP1 PUSH2 0x20C SWAP3 SWAP2 SWAP1 PUSH2 0x6D6 JUMP JUMPDEST POP PUSH1 0x20 DUP3 DUP2 ADD MLOAD PUSH1 0x1 DUP4 ADD DUP1 SLOAD PUSH1 0x1 PUSH1 0x1 PUSH1 0xA0 SHL SUB NOT AND PUSH1 0x1 PUSH1 0x1 PUSH1 0xA0 SHL SUB SWAP1 SWAP3 AND SWAP2 SWAP1 SWAP2 OR SWAP1 SSTORE PUSH1 0x40 DUP4 ADD MLOAD DUP1 MLOAD PUSH2 0x24B SWAP3 PUSH1 0x2 DUP6 ADD SWAP3 ADD SWAP1 PUSH2 0x6D6 JUMP JUMPDEST POP PUSH1 0x60 DUP3 ADD MLOAD DUP2 PUSH1 0x3 ADD SSTORE SWAP1 POP POP PUSH32 0x39B34F12D0A1EB39D220D2ACD5E293C894753A36AC66DA43B832C9F1FDB8254E DUP6 DUP6 DUP6 DUP6 DUP6 PUSH1 0x40 MLOAD PUSH2 0x290 SWAP6 SWAP5 SWAP4 SWAP3 SWAP2 SWAP1 PUSH2 0xB7E JUMP JUMPDEST PUSH1 0x40 MLOAD DUP1 SWAP2 SUB SWAP1 LOG1 PUSH1 0x0 DUP1 SLOAD SWAP1 DUP1 PUSH2 0x2A7 DUP4 PUSH2 0xC40 JUMP JUMPDEST SWAP2 SWAP1 POP SSTORE POP POP POP POP POP POP JUMP JUMPDEST PUSH1 0x30 DUP8 EQ PUSH2 0x303 JUMPI PUSH1 0x40 MLOAD PUSH3 0x461BCD PUSH1 0xE5 SHL DUP2 MSTORE PUSH1 0x20 PUSH1 0x4 DUP3 ADD MSTORE PUSH1 0x19 PUSH1 0x24 DUP3 ADD MSTORE PUSH32 0x496E76616C6964207075626C6963206B6579206C656E67746800000000000000 PUSH1 0x44 DUP3 ADD MSTORE PUSH1 0x64 ADD PUSH2 0x133 JUMP JUMPDEST DUP5 DUP4 EQ DUP1 ISZERO PUSH2 0x311 JUMPI POP DUP5 DUP2 EQ JUMPDEST PUSH2 0x35D JUMPI PUSH1 0x40 MLOAD PUSH3 0x461BCD PUSH1 0xE5 SHL DUP2 MSTORE PUSH1 0x20 PUSH1 0x4 DUP3 ADD DUP2 SWAP1 MSTORE PUSH1 0x24 DUP3 ADD MSTORE PUSH32 0x4F455353206461746120737472756374757265206973206E6F742076616C6964 PUSH1 0x44 DUP3 ADD MSTORE PUSH1 0x64 ADD PUSH2 0x133 JUMP JUMPDEST PUSH1 0x1 PUSH1 0x1 PUSH1 0xA0 SHL SUB DUP10 AND PUSH2 0x3AB JUMPI PUSH1 0x40 MLOAD PUSH3 0x461BCD PUSH1 0xE5 SHL DUP2 MSTORE PUSH1 0x20 PUSH1 0x4 DUP3 ADD MSTORE PUSH1 0x15 PUSH1 0x24 DUP3 ADD MSTORE PUSH21 0x13DDDB995C881859191C995CDCC81A5B9D985B1A59 PUSH1 0x5A SHL PUSH1 0x44 DUP3 ADD MSTORE PUSH1 0x64 ADD PUSH2 0x133 JUMP JUMPDEST PUSH1 0x0 PUSH1 0x1 PUSH1 0x1 PUSH1 0xA0 SHL SUB AND PUSH1 0x3 DUP10 DUP10 PUSH1 0x40 MLOAD PUSH2 0x3C8 SWAP3 SWAP2 SWAP1 PUSH2 0xAA3 JUMP JUMPDEST SWAP1 DUP2 MSTORE PUSH1 0x40 MLOAD SWAP1 DUP2 SWAP1 SUB PUSH1 0x20 ADD SWAP1 KECCAK256 SLOAD PUSH1 0x1 PUSH1 0x1 PUSH1 0xA0 SHL SUB AND EQ PUSH2 0x444 JUMPI PUSH1 0x40 MLOAD PUSH3 0x461BCD PUSH1 0xE5 SHL DUP2 MSTORE PUSH1 0x20 PUSH1 0x4 DUP3 ADD MSTORE PUSH1 0x2D PUSH1 0x24 DUP3 ADD MSTORE PUSH32 0x56616C696461746F7220776974682073616D65207075626C6963206B65792061 PUSH1 0x44 DUP3 ADD MSTORE PUSH13 0x6C726561647920657869737473 PUSH1 0x98 SHL PUSH1 0x64 DUP3 ADD MSTORE PUSH1 0x84 ADD PUSH2 0x133 JUMP JUMPDEST PUSH1 0x0 PUSH1 0x3 DUP10 DUP10 PUSH1 0x40 MLOAD PUSH2 0x458 SWAP3 SWAP2 SWAP1 PUSH2 0xAA3 JUMP JUMPDEST SWAP1 DUP2 MSTORE PUSH1 0x40 MLOAD SWAP1 DUP2 SWAP1 SUB PUSH1 0x20 ADD SWAP1 KECCAK256 SWAP1 POP PUSH2 0x477 PUSH1 0x1 DUP3 ADD DUP11 DUP11 PUSH2 0x75A JUMP JUMPDEST POP DUP1 SLOAD PUSH1 0x1 PUSH1 0x1 PUSH1 0xA0 SHL SUB NOT AND PUSH1 0x1 PUSH1 0x1 PUSH1 0xA0 SHL SUB DUP12 AND OR DUP2 SSTORE PUSH1 0x0 JUMPDEST DUP7 DUP2 LT ISZERO PUSH2 0x674 JUMPI DUP2 PUSH1 0x2 ADD PUSH1 0x40 MLOAD DUP1 PUSH1 0x80 ADD PUSH1 0x40 MSTORE DUP1 DUP4 DUP2 MSTORE PUSH1 0x20 ADD DUP11 DUP11 DUP6 DUP2 DUP2 LT PUSH2 0x4D1 JUMPI PUSH4 0x4E487B71 PUSH1 0xE0 SHL PUSH1 0x0 MSTORE PUSH1 0x32 PUSH1 0x4 MSTORE PUSH1 0x24 PUSH1 0x0 REVERT JUMPDEST SWAP1 POP PUSH1 0x20 MUL DUP2 ADD SWAP1 PUSH2 0x4E3 SWAP2 SWAP1 PUSH2 0xBC0 JUMP JUMPDEST DUP1 DUP1 PUSH1 0x1F ADD PUSH1 0x20 DUP1 SWAP2 DIV MUL PUSH1 0x20 ADD PUSH1 0x40 MLOAD SWAP1 DUP2 ADD PUSH1 0x40 MSTORE DUP1 SWAP4 SWAP3 SWAP2 SWAP1 DUP2 DUP2 MSTORE PUSH1 0x20 ADD DUP4 DUP4 DUP1 DUP3 DUP5 CALLDATACOPY PUSH1 0x0 SWAP3 ADD SWAP2 SWAP1 SWAP2 MSTORE POP POP POP SWAP1 DUP3 MSTORE POP PUSH1 0x20 ADD DUP9 DUP9 DUP6 DUP2 DUP2 LT PUSH2 0x53D JUMPI PUSH4 0x4E487B71 PUSH1 0xE0 SHL PUSH1 0x0 MSTORE PUSH1 0x32 PUSH1 0x4 MSTORE PUSH1 0x24 PUSH1 0x0 REVERT JUMPDEST SWAP1 POP PUSH1 0x20 MUL DUP2 ADD SWAP1 PUSH2 0x54F SWAP2 SWAP1 PUSH2 0xBC0 JUMP JUMPDEST DUP1 DUP1 PUSH1 0x1F ADD PUSH1 0x20 DUP1 SWAP2 DIV MUL PUSH1 0x20 ADD PUSH1 0x40 MLOAD SWAP1 DUP2 ADD PUSH1 0x40 MSTORE DUP1 SWAP4 SWAP3 SWAP2 SWAP1 DUP2 DUP2 MSTORE PUSH1 0x20 ADD DUP4 DUP4 DUP1 DUP3 DUP5 CALLDATACOPY PUSH1 0x0 SWAP3 ADD SWAP2 SWAP1 SWAP2 MSTORE POP POP POP SWAP1 DUP3 MSTORE POP PUSH1 0x20 ADD DUP7 DUP7 DUP6 DUP2 DUP2 LT PUSH2 0x5A9 JUMPI PUSH4 0x4E487B71 PUSH1 0xE0 SHL PUSH1 0x0 MSTORE PUSH1 0x32 PUSH1 0x4 MSTORE PUSH1 0x24 PUSH1 0x0 REVERT JUMPDEST SWAP1 POP PUSH1 0x20 MUL DUP2 ADD SWAP1 PUSH2 0x5BB SWAP2 SWAP1 PUSH2 0xBC0 JUMP JUMPDEST DUP1 DUP1 PUSH1 0x1F ADD PUSH1 0x20 DUP1 SWAP2 DIV MUL PUSH1 0x20 ADD PUSH1 0x40 MLOAD SWAP1 DUP2 ADD PUSH1 0x40 MSTORE DUP1 SWAP4 SWAP3 SWAP2 SWAP1 DUP2 DUP2 MSTORE PUSH1 0x20 ADD DUP4 DUP4 DUP1 DUP3 DUP5 CALLDATACOPY PUSH1 0x0 SWAP3 ADD DUP3 SWAP1 MSTORE POP SWAP4 SWAP1 SWAP5 MSTORE POP POP DUP4 SLOAD PUSH1 0x1 DUP2 DUP2 ADD DUP7 SSTORE SWAP5 DUP3 MSTORE PUSH1 0x20 SWAP2 DUP3 SWAP1 KECCAK256 DUP5 MLOAD PUSH1 0x4 SWAP1 SWAP3 MUL ADD SWAP1 DUP2 SSTORE DUP2 DUP5 ADD MLOAD DUP1 MLOAD SWAP5 SWAP6 SWAP2 SWAP5 PUSH2 0x628 SWAP5 POP SWAP2 DUP6 ADD SWAP3 ADD SWAP1 PUSH2 0x6D6 JUMP JUMPDEST POP PUSH1 0x40 DUP3 ADD MLOAD DUP1 MLOAD PUSH2 0x644 SWAP2 PUSH1 0x2 DUP5 ADD SWAP2 PUSH1 0x20 SWAP1 SWAP2 ADD SWAP1 PUSH2 0x6D6 JUMP JUMPDEST POP PUSH1 0x60 DUP3 ADD MLOAD DUP1 MLOAD PUSH2 0x660 SWAP2 PUSH1 0x3 DUP5 ADD SWAP2 PUSH1 0x20 SWAP1 SWAP2 ADD SWAP1 PUSH2 0x6D6 JUMP JUMPDEST POP POP POP DUP1 PUSH2 0x66D SWAP1 PUSH2 0xC40 JUMP JUMPDEST SWAP1 POP PUSH2 0x494 JUMP JUMPDEST POP PUSH1 0x2 DUP1 SLOAD SWAP1 PUSH1 0x0 PUSH2 0x685 DUP4 PUSH2 0xC40 JUMP JUMPDEST SWAP2 SWAP1 POP SSTORE POP PUSH32 0x8674C0B4BD63A0814BF1AE6D64D71CF4886880A8BDBD3D7C1ECA89A37D1E9271 DUP11 DUP11 DUP11 DUP5 PUSH1 0x2 ADD PUSH1 0x40 MLOAD PUSH2 0x6C2 SWAP5 SWAP4 SWAP3 SWAP2 SWAP1 PUSH2 0xAB3 JUMP JUMPDEST PUSH1 0x40 MLOAD DUP1 SWAP2 SUB SWAP1 LOG1 POP POP POP POP POP POP POP POP POP POP JUMP JUMPDEST DUP3 DUP1 SLOAD PUSH2 0x6E2 SWAP1 PUSH2 0xC05 JUMP JUMPDEST SWAP1 PUSH1 0x0 MSTORE PUSH1 0x20 PUSH1 0x0 KECCAK256 SWAP1 PUSH1 0x1F ADD PUSH1 0x20 SWAP1 DIV DUP2 ADD SWAP3 DUP3 PUSH2 0x704 JUMPI PUSH1 0x0 DUP6 SSTORE PUSH2 0x74A JUMP JUMPDEST DUP3 PUSH1 0x1F LT PUSH2 0x71D JUMPI DUP1 MLOAD PUSH1 0xFF NOT AND DUP4 DUP1 ADD OR DUP6 SSTORE PUSH2 0x74A JUMP JUMPDEST DUP3 DUP1 ADD PUSH1 0x1 ADD DUP6 SSTORE DUP3 ISZERO PUSH2 0x74A JUMPI SWAP2 DUP3 ADD JUMPDEST DUP3 DUP2 GT ISZERO PUSH2 0x74A JUMPI DUP3 MLOAD DUP3 SSTORE SWAP2 PUSH1 0x20 ADD SWAP2 SWAP1 PUSH1 0x1 ADD SWAP1 PUSH2 0x72F JUMP JUMPDEST POP PUSH2 0x756 SWAP3 SWAP2 POP PUSH2 0x7CE JUMP JUMPDEST POP SWAP1 JUMP JUMPDEST DUP3 DUP1 SLOAD PUSH2 0x766 SWAP1 PUSH2 0xC05 JUMP JUMPDEST SWAP1 PUSH1 0x0 MSTORE PUSH1 0x20 PUSH1 0x0 KECCAK256 SWAP1 PUSH1 0x1F ADD PUSH1 0x20 SWAP1 DIV DUP2 ADD SWAP3 DUP3 PUSH2 0x788 JUMPI PUSH1 0x0 DUP6 SSTORE PUSH2 0x74A JUMP JUMPDEST DUP3 PUSH1 0x1F LT PUSH2 0x7A1 JUMPI DUP3 DUP1 ADD PUSH1 0xFF NOT DUP3 CALLDATALOAD AND OR DUP6 SSTORE PUSH2 0x74A JUMP JUMPDEST DUP3 DUP1 ADD PUSH1 0x1 ADD DUP6 SSTORE DUP3 ISZERO PUSH2 0x74A JUMPI SWAP2 DUP3 ADD JUMPDEST DUP3 DUP2 GT ISZERO PUSH2 0x74A JUMPI DUP3 CALLDATALOAD DUP3 SSTORE SWAP2 PUSH1 0x20 ADD SWAP2 SWAP1 PUSH1 0x1 ADD SWAP1 PUSH2 0x7B3 JUMP JUMPDEST JUMPDEST DUP1 DUP3 GT ISZERO PUSH2 0x756 JUMPI PUSH1 0x0 DUP2 SSTORE PUSH1 0x1 ADD PUSH2 0x7CF JUMP JUMPDEST DUP1 CALLDATALOAD PUSH1 0x1 PUSH1 0x1 PUSH1 0xA0 SHL SUB DUP2 AND DUP2 EQ PUSH2 0x7FA JUMPI PUSH1 0x0 DUP1 REVERT JUMPDEST SWAP2 SWAP1 POP JUMP JUMPDEST PUSH1 0x0 DUP1 DUP4 PUSH1 0x1F DUP5 ADD SLT PUSH2 0x810 JUMPI DUP2 DUP3 REVERT JUMPDEST POP DUP2 CALLDATALOAD PUSH8 0xFFFFFFFFFFFFFFFF DUP2 GT ISZERO PUSH2 0x827 JUMPI DUP2 DUP3 REVERT JUMPDEST PUSH1 0x20 DUP4 ADD SWAP2 POP DUP4 PUSH1 0x20 DUP3 PUSH1 0x5 SHL DUP6 ADD ADD GT ISZERO PUSH2 0x842 JUMPI PUSH1 0x0 DUP1 REVERT JUMPDEST SWAP3 POP SWAP3 SWAP1 POP JUMP JUMPDEST PUSH1 0x0 DUP1 DUP4 PUSH1 0x1F DUP5 ADD SLT PUSH2 0x85A JUMPI DUP2 DUP3 REVERT JUMPDEST POP DUP2 CALLDATALOAD PUSH8 0xFFFFFFFFFFFFFFFF DUP2 GT ISZERO PUSH2 0x871 JUMPI DUP2 DUP3 REVERT JUMPDEST PUSH1 0x20 DUP4 ADD SWAP2 POP DUP4 PUSH1 0x20 DUP3 DUP6 ADD ADD GT ISZERO PUSH2 0x842 JUMPI PUSH1 0x0 DUP1 REVERT JUMPDEST PUSH1 0x0 DUP1 PUSH1 0x0 DUP1 PUSH1 0x0 DUP1 PUSH1 0x0 DUP1 PUSH1 0x0 PUSH1 0xA0 DUP11 DUP13 SUB SLT ISZERO PUSH2 0x8A6 JUMPI DUP5 DUP6 REVERT JUMPDEST PUSH2 0x8AF DUP11 PUSH2 0x7E3 JUMP JUMPDEST SWAP9 POP PUSH1 0x20 DUP11 ADD CALLDATALOAD PUSH8 0xFFFFFFFFFFFFFFFF DUP1 DUP3 GT ISZERO PUSH2 0x8CB JUMPI DUP7 DUP8 REVERT JUMPDEST PUSH2 0x8D7 DUP14 DUP4 DUP15 ADD PUSH2 0x849 JUMP JUMPDEST SWAP1 SWAP11 POP SWAP9 POP PUSH1 0x40 DUP13 ADD CALLDATALOAD SWAP2 POP DUP1 DUP3 GT ISZERO PUSH2 0x8EF JUMPI DUP7 DUP8 REVERT JUMPDEST PUSH2 0x8FB DUP14 DUP4 DUP15 ADD PUSH2 0x7FF JUMP JUMPDEST SWAP1 SWAP9 POP SWAP7 POP PUSH1 0x60 DUP13 ADD CALLDATALOAD SWAP2 POP DUP1 DUP3 GT ISZERO PUSH2 0x913 JUMPI DUP6 DUP7 REVERT JUMPDEST PUSH2 0x91F DUP14 DUP4 DUP15 ADD PUSH2 0x7FF JUMP JUMPDEST SWAP1 SWAP7 POP SWAP5 POP PUSH1 0x80 DUP13 ADD CALLDATALOAD SWAP2 POP DUP1 DUP3 GT ISZERO PUSH2 0x937 JUMPI DUP4 DUP5 REVERT JUMPDEST POP PUSH2 0x944 DUP13 DUP3 DUP14 ADD PUSH2 0x7FF JUMP JUMPDEST SWAP2 POP DUP1 SWAP4 POP POP DUP1 SWAP2 POP POP SWAP3 SWAP6 SWAP9 POP SWAP3 SWAP6 SWAP9 POP SWAP3 SWAP6 SWAP9 JUMP JUMPDEST PUSH1 0x0 DUP1 PUSH1 0x0 DUP1 PUSH1 0x0 PUSH1 0x60 DUP7 DUP9 SUB SLT ISZERO PUSH2 0x972 JUMPI DUP1 DUP2 REVERT JUMPDEST DUP6 CALLDATALOAD PUSH8 0xFFFFFFFFFFFFFFFF DUP1 DUP3 GT ISZERO PUSH2 0x989 JUMPI DUP3 DUP4 REVERT JUMPDEST PUSH2 0x995 DUP10 DUP4 DUP11 ADD PUSH2 0x849 JUMP JUMPDEST SWAP1 SWAP8 POP SWAP6 POP DUP6 SWAP2 POP PUSH2 0x9A9 PUSH1 0x20 DUP10 ADD PUSH2 0x7E3 JUMP JUMPDEST SWAP5 POP PUSH1 0x40 DUP9 ADD CALLDATALOAD SWAP2 POP DUP1 DUP3 GT ISZERO PUSH2 0x9BE JUMPI DUP3 DUP4 REVERT JUMPDEST POP PUSH2 0x9CB DUP9 DUP3 DUP10 ADD PUSH2 0x849 JUMP JUMPDEST SWAP7 SWAP10 SWAP6 SWAP9 POP SWAP4 SWAP7 POP SWAP3 SWAP5 SWAP4 SWAP3 POP POP POP JUMP JUMPDEST DUP2 DUP4 MSTORE DUP2 DUP2 PUSH1 0x20 DUP6 ADD CALLDATACOPY POP PUSH1 0x0 DUP3 DUP3 ADD PUSH1 0x20 SWAP1 DUP2 ADD SWAP2 SWAP1 SWAP2 MSTORE PUSH1 0x1F SWAP1 SWAP2 ADD PUSH1 0x1F NOT AND SWAP1 SWAP2 ADD ADD SWAP1 JUMP JUMPDEST DUP1 SLOAD PUSH1 0x0 SWAP1 PUSH1 0x1 DUP2 DUP2 SHR SWAP1 DUP1 DUP4 AND DUP1 PUSH2 0xA1F JUMPI PUSH1 0x7F DUP4 AND SWAP3 POP JUMPDEST PUSH1 0x20 DUP1 DUP5 LT DUP3 EQ ISZERO PUSH2 0xA3F JUMPI PUSH4 0x4E487B71 PUSH1 0xE0 SHL DUP7 MSTORE PUSH1 0x22 PUSH1 0x4 MSTORE PUSH1 0x24 DUP7 REVERT JUMPDEST DUP4 DUP9 MSTORE PUSH1 0x20 DUP9 ADD DUP3 DUP1 ISZERO PUSH2 0xA5A JUMPI PUSH1 0x1 DUP2 EQ PUSH2 0xA6B JUMPI PUSH2 0xA96 JUMP JUMPDEST PUSH1 0xFF NOT DUP8 AND DUP3 MSTORE DUP3 DUP3 ADD SWAP8 POP PUSH2 0xA96 JUMP JUMPDEST PUSH1 0x0 DUP10 DUP2 MSTORE PUSH1 0x20 SWAP1 KECCAK256 PUSH1 0x0 JUMPDEST DUP8 DUP2 LT ISZERO PUSH2 0xA90 JUMPI DUP2 SLOAD DUP5 DUP3 ADD MSTORE SWAP1 DUP7 ADD SWAP1 DUP5 ADD PUSH2 0xA77 JUMP JUMPDEST DUP4 ADD SWAP9 POP POP JUMPDEST POP POP POP POP POP POP POP SWAP3 SWAP2 POP POP JUMP JUMPDEST DUP2 DUP4 DUP3 CALLDATACOPY PUSH1 0x0 SWAP2 ADD SWAP1 DUP2 MSTORE SWAP2 SWAP1 POP JUMP JUMPDEST PUSH1 0x1 PUSH1 0x1 PUSH1 0xA0 SHL SUB DUP6 AND DUP2 MSTORE PUSH1 0x60 PUSH1 0x20 DUP1 DUP4 ADD DUP3 SWAP1 MSTORE PUSH1 0x0 SWAP2 SWAP1 PUSH2 0xADA DUP5 DUP4 ADD DUP8 DUP10 PUSH2 0x9DC JUMP JUMPDEST PUSH1 0x40 DUP6 DUP3 SUB DUP2 DUP8 ADD MSTORE DUP2 DUP8 SLOAD DUP1 DUP5 MSTORE DUP5 DUP5 ADD SWAP2 POP DUP5 DUP2 PUSH1 0x5 SHL DUP6 ADD ADD DUP10 DUP9 MSTORE DUP6 DUP9 KECCAK256 DUP9 JUMPDEST DUP4 DUP2 LT ISZERO PUSH2 0xB6B JUMPI PUSH1 0x1F NOT DUP8 DUP5 SUB ADD DUP6 MSTORE PUSH1 0x80 DUP3 SLOAD DUP5 MSTORE DUP1 DUP10 DUP6 ADD MSTORE PUSH2 0xB29 DUP2 DUP6 ADD PUSH1 0x1 DUP6 ADD PUSH2 0xA05 JUMP JUMPDEST SWAP1 POP DUP4 DUP2 SUB DUP8 DUP6 ADD MSTORE PUSH2 0xB3F DUP2 PUSH1 0x2 DUP6 ADD PUSH2 0xA05 JUMP JUMPDEST SWAP1 POP DUP4 DUP2 SUB DUP11 DUP6 ADD MSTORE PUSH2 0xB55 DUP2 PUSH1 0x3 DUP6 ADD PUSH2 0xA05 JUMP JUMPDEST SWAP6 DUP10 ADD SWAP6 SWAP4 POP POP PUSH1 0x4 SWAP2 SWAP1 SWAP2 ADD SWAP1 PUSH1 0x1 ADD PUSH2 0xAFE JUMP JUMPDEST POP SWAP1 SWAP14 SWAP13 POP POP POP POP POP POP POP POP POP POP POP POP POP JUMP JUMPDEST PUSH1 0x60 DUP2 MSTORE PUSH1 0x0 PUSH2 0xB92 PUSH1 0x60 DUP4 ADD DUP8 DUP10 PUSH2 0x9DC JUMP JUMPDEST PUSH1 0x1 PUSH1 0x1 PUSH1 0xA0 SHL SUB DUP7 AND PUSH1 0x20 DUP5 ADD MSTORE DUP3 DUP2 SUB PUSH1 0x40 DUP5 ADD MSTORE PUSH2 0xBB4 DUP2 DUP6 DUP8 PUSH2 0x9DC JUMP JUMPDEST SWAP9 SWAP8 POP POP POP POP POP POP POP POP JUMP JUMPDEST PUSH1 0x0 DUP1 DUP4 CALLDATALOAD PUSH1 0x1E NOT DUP5 CALLDATASIZE SUB ADD DUP2 SLT PUSH2 0xBD6 JUMPI DUP3 DUP4 REVERT JUMPDEST DUP4 ADD DUP1 CALLDATALOAD SWAP2 POP PUSH8 0xFFFFFFFFFFFFFFFF DUP3 GT ISZERO PUSH2 0xBF0 JUMPI DUP3 DUP4 REVERT JUMPDEST PUSH1 0x20 ADD SWAP2 POP CALLDATASIZE DUP2 SWAP1 SUB DUP3 SGT ISZERO PUSH2 0x842 JUMPI PUSH1 0x0 DUP1 REVERT JUMPDEST PUSH1 0x1 DUP2 DUP2 SHR SWAP1 DUP3 AND DUP1 PUSH2 0xC19 JUMPI PUSH1 0x7F DUP3 AND SWAP2 POP JUMPDEST PUSH1 0x20 DUP3 LT DUP2 EQ ISZERO PUSH2 0xC3A JUMPI PUSH4 0x4E487B71 PUSH1 0xE0 SHL PUSH1 0x0 MSTORE PUSH1 0x22 PUSH1 0x4 MSTORE PUSH1 0x24 PUSH1 0x0 REVERT JUMPDEST POP SWAP2 SWAP1 POP JUMP JUMPDEST PUSH1 0x0 PUSH1 0x0 NOT DUP3 EQ ISZERO PUSH2 0xC60 JUMPI PUSH4 0x4E487B71 PUSH1 0xE0 SHL DUP2 MSTORE PUSH1 0x11 PUSH1 0x4 MSTORE PUSH1 0x24 DUP2 REVERT JUMPDEST POP PUSH1 0x1 ADD SWAP1 JUMP INVALID LOG2 PUSH5 0x6970667358 0x22 SLT KECCAK256 AND 0xFC 0xB6 0xEA 0x4E DUP2 SWAP7 0xB0 JUMPDEST 0xEB SMOD 0x4F 0xF PUSH7 0x2E1FB412D7CBF3 0xF6 EXTCODESIZE 0xE2 0x4B XOR SWAP5 0xD 0xC6 MSIZE DUP11 PUSH31 0x64736F6C634300080400330000000000000000000000000000000000000000 "
        },
        "methodIdentifiers": {
          "addOperator(string,address,bytes)": "00f43a66",
          "addValidator(address,bytes,bytes[],bytes[],bytes[])": "4df4c728",
          "operatorCount()": "7c6f3158",
          "validatorCount()": "0f43a677"
        }
      }
    }
  }
}