{
  "_format": "hh-sol-artifact-1",
  "contractName": "SSVNetwork",
  "sourceName": "contracts/SSVNetwork.sol",
  "abi": [
    {
      "anonymous": false,
      "inputs": [
        {
          "indexed": false,
          "internalType": "bytes",
          "name": "validatorPublicKey",
          "type": "bytes"
        },
        {
          "indexed": false,
          "internalType": "uint256",
          "name": "index",
          "type": "uint256"
        },
        {
          "indexed": false,
          "internalType": "bytes",
          "name": "operatorPublicKey",
          "type": "bytes"
        },
        {
          "indexed": false,
          "internalType": "bytes",
          "name": "sharedPublicKey",
          "type": "bytes"
        },
        {
          "indexed": false,
          "internalType": "bytes",
          "name": "encryptedKey",
          "type": "bytes"
        }
      ],
      "name": "OessAdded",
      "type": "event"
    },
    {
      "anonymous": false,
      "inputs": [
        {
          "indexed": false,
          "internalType": "string",
          "name": "name",
          "type": "string"
        },
        {
          "indexed": false,
          "internalType": "address",
          "name": "ownerAddress",
          "type": "address"
        },
        {
          "indexed": false,
          "internalType": "bytes",
          "name": "publicKey",
          "type": "bytes"
        }
      ],
      "name": "OperatorAdded",
      "type": "event"
    },
    {
      "anonymous": false,
      "inputs": [
        {
          "indexed": false,
          "internalType": "address",
          "name": "ownerAddress",
          "type": "address"
        },
        {
          "indexed": false,
          "internalType": "bytes",
          "name": "publicKey",
          "type": "bytes"
        },
        {
          "components": [
            {
              "internalType": "uint256",
              "name": "index",
              "type": "uint256"
            },
            {
              "internalType": "bytes",
              "name": "operatorPublicKey",
              "type": "bytes"
            },
            {
              "internalType": "bytes",
              "name": "sharedPublicKey",
              "type": "bytes"
            },
            {
              "internalType": "bytes",
              "name": "encryptedKey",
              "type": "bytes"
            }
          ],
          "indexed": false,
          "internalType": "struct ISSVNetwork.Oess[]",
          "name": "oessList",
          "type": "tuple[]"
        }
      ],
      "name": "ValidatorAdded",
      "type": "event"
    },
    {
      "inputs": [
        {
          "internalType": "string",
          "name": "_name",
          "type": "string"
        },
        {
          "internalType": "address",
          "name": "_ownerAddress",
          "type": "address"
        },
        {
          "internalType": "bytes",
          "name": "_publicKey",
          "type": "bytes"
        }
      ],
      "name": "addOperator",
      "outputs": [],
      "stateMutability": "nonpayable",
      "type": "function"
    },
    {
      "inputs": [
        {
          "internalType": "address",
          "name": "_ownerAddress",
          "type": "address"
        },
        {
          "internalType": "bytes",
          "name": "_publicKey",
          "type": "bytes"
        },
        {
          "internalType": "bytes[]",
          "name": "_operatorPublicKeys",
          "type": "bytes[]"
        },
        {
          "internalType": "bytes[]",
          "name": "_sharesPublicKeys",
          "type": "bytes[]"
        },
        {
          "internalType": "bytes[]",
          "name": "_encryptedKeys",
          "type": "bytes[]"
        }
      ],
      "name": "addValidator",
      "outputs": [],
      "stateMutability": "nonpayable",
      "type": "function"
    },
    {
      "inputs": [],
      "name": "operatorCount",
      "outputs": [
        {
          "internalType": "uint256",
          "name": "",
          "type": "uint256"
        }
      ],
      "stateMutability": "view",
      "type": "function"
    },
    {
      "inputs": [
        {
          "internalType": "bytes",
          "name": "",
          "type": "bytes"
        }
      ],
      "name": "operators",
      "outputs": [
        {
          "internalType": "string",
          "name": "name",
          "type": "string"
        },
        {
          "internalType": "address",
          "name": "ownerAddress",
          "type": "address"
        },
        {
          "internalType": "bytes",
          "name": "publicKey",
          "type": "bytes"
        },
        {
          "internalType": "uint256",
          "name": "score",
          "type": "uint256"
        }
      ],
      "stateMutability": "view",
      "type": "function"
    },
    {
      "inputs": [],
      "name": "validatorCount",
      "outputs": [
        {
          "internalType": "uint256",
          "name": "",
          "type": "uint256"
        }
      ],
      "stateMutability": "view",
      "type": "function"
    }
  ],
  "bytecode": "0x608060405234801561001057600080fd5b50610f6e806100206000396000f3fe608060405234801561001057600080fd5b50600436106100565760003560e01c8062f43a661461005b5780630f43a677146100705780634330dd701461008c5780634df4c728146100af5780637c6f3158146100c2575b600080fd5b61006e610069366004610b85565b6100cb565b005b61007960015481565b6040519081526020015b60405180910390f35b61009f61009a366004610adb565b6102e2565b6040516100839493929190610e35565b61006e6100bd366004610a09565b610434565b61007960005481565b60006001600160a01b0316600283836040516100e8929190610d19565b908152604051908190036020019020600101546001600160a01b03161461016b5760405162461bcd60e51b815260206004820152602c60248201527f4f70657261746f7220776974682073616d65207075626c6963206b657920616c60448201526b72656164792065786973747360a01b60648201526084015b60405180910390fd5b604051806080016040528086868080601f0160208091040260200160405190810160405280939291908181526020018383808284376000920191909152505050908252506001600160a01b03851660208083019190915260408051601f8601839004830281018301825285815292019190859085908190840183828082843760009201829052509385525050506020909101526040516002906102119085908590610d19565b9081526020016040518091039020600082015181600001908051906020019061023b929190610857565b506020828101516001830180546001600160a01b0319166001600160a01b039092169190911790556040830151805161027a9260028501920190610857565b50606082015181600301559050507f39b34f12d0a1eb39d220d2acd5e293c894753a36ac66da43b832c9f1fdb8254e85858585856040516102bf959493929190610df3565b60405180910390a16000805490806102d683610efb565b91905055505050505050565b805160208183018101805160028252928201919093012091528054819061030890610ec0565b80601f016020809104026020016040519081016040528092919081815260200182805461033490610ec0565b80156103815780601f1061035657610100808354040283529160200191610381565b820191906000526020600020905b81548152906001019060200180831161036457829003601f168201915b505050600184015460028501805494956001600160a01b039092169491935091506103ab90610ec0565b80601f01602080910402602001604051908101604052809291908181526020018280546103d790610ec0565b80156104245780601f106103f957610100808354040283529160200191610424565b820191906000526020600020905b81548152906001019060200180831161040757829003601f168201915b5050505050908060030154905084565b603087146104845760405162461bcd60e51b815260206004820152601960248201527f496e76616c6964207075626c6963206b6579206c656e677468000000000000006044820152606401610162565b848314801561049257508481145b6104de5760405162461bcd60e51b815260206004820181905260248201527f4f455353206461746120737472756374757265206973206e6f742076616c69646044820152606401610162565b6001600160a01b03891661052c5760405162461bcd60e51b815260206004820152601560248201527413dddb995c881859191c995cdcc81a5b9d985b1a59605a1b6044820152606401610162565b60006001600160a01b031660038989604051610549929190610d19565b908152604051908190036020019020546001600160a01b0316146105c55760405162461bcd60e51b815260206004820152602d60248201527f56616c696461746f7220776974682073616d65207075626c6963206b6579206160448201526c6c72656164792065786973747360981b6064820152608401610162565b6000600389896040516105d9929190610d19565b90815260405190819003602001902090506105f8600182018a8a6108db565b5080546001600160a01b0319166001600160a01b038b1617815560005b868110156107f5578160020160405180608001604052808381526020018a8a8581811061065257634e487b7160e01b600052603260045260246000fd5b90506020028101906106649190610e7b565b8080601f0160208091040260200160405190810160405280939291908181526020018383808284376000920191909152505050908252506020018888858181106106be57634e487b7160e01b600052603260045260246000fd5b90506020028101906106d09190610e7b565b8080601f01602080910402602001604051908101604052809392919081815260200183838082843760009201919091525050509082525060200186868581811061072a57634e487b7160e01b600052603260045260246000fd5b905060200281019061073c9190610e7b565b8080601f01602080910402602001604051908101604052809392919081815260200183838082843760009201829052509390945250508354600181810186559482526020918290208451600490920201908155818401518051949591946107a99450918501920190610857565b50604082015180516107c5916002840191602090910190610857565b50606082015180516107e1916003840191602090910190610857565b505050806107ee90610efb565b9050610615565b506001805490600061080683610efb565b91905055507f8674c0b4bd63a0814bf1ae6d64d71cf4886880a8bdbd3d7c1eca89a37d1e92718a8a8a846002016040516108439493929190610d29565b60405180910390a150505050505050505050565b82805461086390610ec0565b90600052602060002090601f01602090048101928261088557600085556108cb565b82601f1061089e57805160ff19168380011785556108cb565b828001600101855582156108cb579182015b828111156108cb5782518255916020019190600101906108b0565b506108d792915061094f565b5090565b8280546108e790610ec0565b90600052602060002090601f01602090048101928261090957600085556108cb565b82601f106109225782800160ff198235161785556108cb565b828001600101855582156108cb579182015b828111156108cb578235825591602001919060010190610934565b5b808211156108d75760008155600101610950565b80356001600160a01b038116811461097b57600080fd5b919050565b60008083601f840112610991578081fd5b50813567ffffffffffffffff8111156109a8578182fd5b60208301915083602080830285010111156109c257600080fd5b9250929050565b60008083601f8401126109da578182fd5b50813567ffffffffffffffff8111156109f1578182fd5b6020830191508360208285010111156109c257600080fd5b600080600080600080600080600060a08a8c031215610a26578485fd5b610a2f8a610964565b985060208a013567ffffffffffffffff80821115610a4b578687fd5b610a578d838e016109c9565b909a50985060408c0135915080821115610a6f578687fd5b610a7b8d838e01610980565b909850965060608c0135915080821115610a93578586fd5b610a9f8d838e01610980565b909650945060808c0135915080821115610ab7578384fd5b50610ac48c828d01610980565b915080935050809150509295985092959850929598565b600060208284031215610aec578081fd5b813567ffffffffffffffff80821115610b03578283fd5b818401915084601f830112610b16578283fd5b813581811115610b2857610b28610f22565b604051601f8201601f19908116603f01168101908382118183101715610b5057610b50610f22565b81604052828152876020848701011115610b68578586fd5b826020860160208301379182016020019490945295945050505050565b600080600080600060608688031215610b9c578081fd5b853567ffffffffffffffff80821115610bb3578283fd5b610bbf89838a016109c9565b9097509550859150610bd360208901610964565b94506040880135915080821115610be8578283fd5b50610bf5888289016109c9565b969995985093965092949392505050565b60008284528282602086013780602084860101526020601f19601f85011685010190509392505050565b60008151808452815b81811015610c5557602081850181015186830182015201610c39565b81811115610c665782602083870101525b50601f01601f19169290920160200192915050565b805460009060028104600180831680610c9557607f831692505b6020808410821415610cb557634e487b7160e01b86526022600452602486fd5b83885260208801828015610cd05760018114610ce157610d0c565b60ff19871682528282019750610d0c565b60008981526020902060005b87811015610d0657815484820152908601908401610ced565b83019850505b5050505050505092915050565b6000828483379101908152919050565b6001600160a01b03851681526060602080830182905260009190610d508483018789610c06565b604085820381870152818754808452848401915084858202850101898852858820885b83811015610de057601f198784030185526080825484528089850152610d9e81850160018501610c7b565b905083810387850152610db48160028501610c7b565b90508381038a850152610dca8160038501610c7b565b9589019593505060049190910190600101610d73565b50909d9c50505050505050505050505050565b600060608252610e07606083018789610c06565b6001600160a01b03861660208401528281036040840152610e29818587610c06565b98975050505050505050565b600060808252610e486080830187610c30565b6001600160a01b03861660208401528281036040840152610e698186610c30565b91505082606083015295945050505050565b6000808335601e19843603018112610e91578283fd5b83018035915067ffffffffffffffff821115610eab578283fd5b6020019150368190038213156109c257600080fd5b600281046001821680610ed457607f821691505b60208210811415610ef557634e487b7160e01b600052602260045260246000fd5b50919050565b6000600019821415610f1b57634e487b7160e01b81526011600452602481fd5b5060010190565b634e487b7160e01b600052604160045260246000fdfea2646970667358221220a465fbcc69b2a8d3996a7c3e18003b96a3f31a1a783b7b26c6129d27e3d4a5a264736f6c63430008020033",
  "linkReferences": {},
  "deployedLinkReferences": {}
}