{
  "_format": "hh-sol-artifact-1",
  "contractName": "SSVNetwork",
  "sourceName": "contracts/SSVNetwork.sol",
  "abi": [
    {
      "anonymous": false,
      "inputs": [
        {
          "indexed": false,
          "internalType": "bytes",
          "name": "validatorPublicKey",
          "type": "bytes"
        },
        {
          "indexed": false,
          "internalType": "uint256",
          "name": "index",
          "type": "uint256"
        },
        {
          "indexed": false,
          "internalType": "bytes",
          "name": "operatorPublicKey",
          "type": "bytes"
        },
        {
          "indexed": false,
          "internalType": "bytes",
          "name": "sharedPublicKey",
          "type": "bytes"
        },
        {
          "indexed": false,
          "internalType": "bytes",
          "name": "encryptedKey",
          "type": "bytes"
        }
      ],
      "name": "OessAdded",
      "type": "event"
    },
    {
      "anonymous": false,
      "inputs": [
        {
          "indexed": false,
          "internalType": "string",
          "name": "name",
          "type": "string"
        },
        {
          "indexed": false,
          "internalType": "address",
          "name": "ownerAddress",
          "type": "address"
        },
        {
          "indexed": false,
          "internalType": "bytes",
          "name": "publicKey",
          "type": "bytes"
        }
      ],
      "name": "OperatorAdded",
      "type": "event"
    },
    {
      "anonymous": false,
      "inputs": [
        {
          "indexed": false,
          "internalType": "address",
          "name": "ownerAddress",
          "type": "address"
        },
        {
          "indexed": false,
          "internalType": "bytes",
          "name": "publicKey",
          "type": "bytes"
        },
        {
          "components": [
            {
              "internalType": "uint256",
              "name": "index",
              "type": "uint256"
            },
            {
              "internalType": "bytes",
              "name": "operatorPublicKey",
              "type": "bytes"
            },
            {
              "internalType": "bytes",
              "name": "sharedPublicKey",
              "type": "bytes"
            },
            {
              "internalType": "bytes",
              "name": "encryptedKey",
              "type": "bytes"
            }
          ],
          "indexed": false,
          "internalType": "struct IValidatorRegistry.Oess[]",
          "name": "oessList",
          "type": "tuple[]"
        }
      ],
      "name": "ValidatorAdded",
      "type": "event"
    },
    {
      "inputs": [
        {
          "internalType": "string",
          "name": "_name",
          "type": "string"
        },
        {
          "internalType": "address",
          "name": "_ownerAddress",
          "type": "address"
        },
        {
          "internalType": "bytes",
          "name": "_publicKey",
          "type": "bytes"
        }
      ],
      "name": "addOperator",
      "outputs": [],
      "stateMutability": "nonpayable",
      "type": "function"
    },
    {
      "inputs": [
        {
          "internalType": "address",
          "name": "_ownerAddress",
          "type": "address"
        },
        {
          "internalType": "bytes",
          "name": "_publicKey",
          "type": "bytes"
        },
        {
          "internalType": "bytes[]",
          "name": "_operatorPublicKeys",
          "type": "bytes[]"
        },
        {
          "internalType": "bytes[]",
          "name": "_sharesPublicKeys",
          "type": "bytes[]"
        },
        {
          "internalType": "bytes[]",
          "name": "_encryptedKeys",
          "type": "bytes[]"
        }
      ],
      "name": "addValidator",
      "outputs": [],
      "stateMutability": "nonpayable",
      "type": "function"
    },
    {
      "inputs": [],
      "name": "operatorCount",
      "outputs": [
        {
          "internalType": "uint256",
          "name": "",
          "type": "uint256"
        }
      ],
      "stateMutability": "view",
      "type": "function"
    },
    {
      "inputs": [],
      "name": "validatorCount",
      "outputs": [
        {
          "internalType": "uint256",
          "name": "",
          "type": "uint256"
        }
      ],
      "stateMutability": "view",
      "type": "function"
    }
  ],
  "bytecode": "0x608060405234801561001057600080fd5b50610c9d806100206000396000f3fe608060405234801561001057600080fd5b506004361061004b5760003560e01c8062f43a66146100505780630f43a677146100655780634df4c728146100805780637c6f315814610093575b600080fd5b61006361005e36600461095b565b61009c565b005b61006e60025481565b60405190815260200160405180910390f35b61006361008e366004610889565b6102b3565b61006e60005481565b60006001600160a01b0316600183836040516100b9929190610aa3565b908152604051908190036020019020600101546001600160a01b03161461013c5760405162461bcd60e51b815260206004820152602c60248201527f4f70657261746f7220776974682073616d65207075626c6963206b657920616c60448201526b72656164792065786973747360a01b60648201526084015b60405180910390fd5b604051806080016040528086868080601f0160208091040260200160405190810160405280939291908181526020018383808284376000920191909152505050908252506001600160a01b03851660208083019190915260408051601f8601839004830281018301825285815292019190859085908190840183828082843760009201829052509385525050506020909101526040516001906101e29085908590610aa3565b9081526020016040518091039020600082015181600001908051906020019061020c9291906106d6565b506020828101516001830180546001600160a01b0319166001600160a01b039092169190911790556040830151805161024b92600285019201906106d6565b50606082015181600301559050507f39b34f12d0a1eb39d220d2acd5e293c894753a36ac66da43b832c9f1fdb8254e8585858585604051610290959493929190610b7e565b60405180910390a16000805490806102a783610c40565b91905055505050505050565b603087146103035760405162461bcd60e51b815260206004820152601960248201527f496e76616c6964207075626c6963206b6579206c656e677468000000000000006044820152606401610133565b848314801561031157508481145b61035d5760405162461bcd60e51b815260206004820181905260248201527f4f455353206461746120737472756374757265206973206e6f742076616c69646044820152606401610133565b6001600160a01b0389166103ab5760405162461bcd60e51b815260206004820152601560248201527413dddb995c881859191c995cdcc81a5b9d985b1a59605a1b6044820152606401610133565b60006001600160a01b0316600389896040516103c8929190610aa3565b908152604051908190036020019020546001600160a01b0316146104445760405162461bcd60e51b815260206004820152602d60248201527f56616c696461746f7220776974682073616d65207075626c6963206b6579206160448201526c6c72656164792065786973747360981b6064820152608401610133565b600060038989604051610458929190610aa3565b9081526040519081900360200190209050610477600182018a8a61075a565b5080546001600160a01b0319166001600160a01b038b1617815560005b86811015610674578160020160405180608001604052808381526020018a8a858181106104d157634e487b7160e01b600052603260045260246000fd5b90506020028101906104e39190610bc0565b8080601f01602080910402602001604051908101604052809392919081815260200183838082843760009201919091525050509082525060200188888581811061053d57634e487b7160e01b600052603260045260246000fd5b905060200281019061054f9190610bc0565b8080601f0160208091040260200160405190810160405280939291908181526020018383808284376000920191909152505050908252506020018686858181106105a957634e487b7160e01b600052603260045260246000fd5b90506020028101906105bb9190610bc0565b8080601f016020809104026020016040519081016040528093929190818152602001838380828437600092018290525093909452505083546001818101865594825260209182902084516004909202019081558184015180519495919461062894509185019201906106d6565b50604082015180516106449160028401916020909101906106d6565b50606082015180516106609160038401916020909101906106d6565b5050508061066d90610c40565b9050610494565b506002805490600061068583610c40565b91905055507f8674c0b4bd63a0814bf1ae6d64d71cf4886880a8bdbd3d7c1eca89a37d1e92718a8a8a846002016040516106c29493929190610ab3565b60405180910390a150505050505050505050565b8280546106e290610c05565b90600052602060002090601f016020900481019282610704576000855561074a565b82601f1061071d57805160ff191683800117855561074a565b8280016001018555821561074a579182015b8281111561074a57825182559160200191906001019061072f565b506107569291506107ce565b5090565b82805461076690610c05565b90600052602060002090601f016020900481019282610788576000855561074a565b82601f106107a15782800160ff1982351617855561074a565b8280016001018555821561074a579182015b8281111561074a5782358255916020019190600101906107b3565b5b8082111561075657600081556001016107cf565b80356001600160a01b03811681146107fa57600080fd5b919050565b60008083601f840112610810578182fd5b50813567ffffffffffffffff811115610827578182fd5b6020830191508360208260051b850101111561084257600080fd5b9250929050565b60008083601f84011261085a578182fd5b50813567ffffffffffffffff811115610871578182fd5b60208301915083602082850101111561084257600080fd5b600080600080600080600080600060a08a8c0312156108a6578485fd5b6108af8a6107e3565b985060208a013567ffffffffffffffff808211156108cb578687fd5b6108d78d838e01610849565b909a50985060408c01359150808211156108ef578687fd5b6108fb8d838e016107ff565b909850965060608c0135915080821115610913578586fd5b61091f8d838e016107ff565b909650945060808c0135915080821115610937578384fd5b506109448c828d016107ff565b915080935050809150509295985092959850929598565b600080600080600060608688031215610972578081fd5b853567ffffffffffffffff80821115610989578283fd5b61099589838a01610849565b90975095508591506109a9602089016107e3565b945060408801359150808211156109be578283fd5b506109cb88828901610849565b969995985093965092949392505050565b81835281816020850137506000828201602090810191909152601f909101601f19169091010190565b8054600090600181811c9080831680610a1f57607f831692505b6020808410821415610a3f57634e487b7160e01b86526022600452602486fd5b83885260208801828015610a5a5760018114610a6b57610a96565b60ff19871682528282019750610a96565b60008981526020902060005b87811015610a9057815484820152908601908401610a77565b83019850505b5050505050505092915050565b8183823760009101908152919050565b6001600160a01b03851681526060602080830182905260009190610ada84830187896109dc565b6040858203818701528187548084528484019150848160051b850101898852858820885b83811015610b6b57601f198784030185526080825484528089850152610b2981850160018501610a05565b905083810387850152610b3f8160028501610a05565b90508381038a850152610b558160038501610a05565b9589019593505060049190910190600101610afe565b50909d9c50505050505050505050505050565b606081526000610b926060830187896109dc565b6001600160a01b03861660208401528281036040840152610bb48185876109dc565b98975050505050505050565b6000808335601e19843603018112610bd6578283fd5b83018035915067ffffffffffffffff821115610bf0578283fd5b60200191503681900382131561084257600080fd5b600181811c90821680610c1957607f821691505b60208210811415610c3a57634e487b7160e01b600052602260045260246000fd5b50919050565b6000600019821415610c6057634e487b7160e01b81526011600452602481fd5b506001019056fea264697066735822122016fcb6ea4e8196b05beb074f0f662e1fb412d7cbf3f63be24b18940dc6598a7e64736f6c63430008040033",
  "linkReferences": {},
  "deployedLinkReferences": {}
}