{
  "_format": "hh-sol-artifact-1",
  "contractName": "SSVNetwork",
  "sourceName": "contracts/SSVNetwork.sol",
  "abi": [
    {
      "anonymous": false,
      "inputs": [
        {
          "indexed": false,
          "internalType": "bytes",
          "name": "validatorPublicKey",
          "type": "bytes"
        },
        {
          "indexed": false,
          "internalType": "uint256",
          "name": "index",
          "type": "uint256"
        },
        {
          "indexed": false,
          "internalType": "bytes",
          "name": "operatorPublicKey",
          "type": "bytes"
        },
        {
          "indexed": false,
          "internalType": "bytes",
          "name": "sharedPublicKey",
          "type": "bytes"
        },
        {
          "indexed": false,
          "internalType": "bytes",
          "name": "encryptedKey",
          "type": "bytes"
        }
      ],
      "name": "OessAdded",
      "type": "event"
    },
    {
      "anonymous": false,
      "inputs": [
        {
          "indexed": false,
          "internalType": "string",
          "name": "name",
          "type": "string"
        },
        {
          "indexed": false,
          "internalType": "address",
          "name": "ownerAddress",
          "type": "address"
        },
        {
          "indexed": false,
          "internalType": "bytes",
          "name": "publicKey",
          "type": "bytes"
        }
      ],
      "name": "OperatorAdded",
      "type": "event"
    },
    {
      "anonymous": false,
      "inputs": [
        {
          "indexed": false,
          "internalType": "bytes",
          "name": "publicKey",
          "type": "bytes"
        }
      ],
      "name": "OperatorDeleted",
      "type": "event"
    },
    {
      "anonymous": false,
      "inputs": [
        {
          "indexed": false,
          "internalType": "address",
          "name": "ownerAddress",
          "type": "address"
        },
        {
          "indexed": false,
          "internalType": "bytes",
          "name": "publicKey",
          "type": "bytes"
        },
        {
          "components": [
            {
              "internalType": "uint256",
              "name": "index",
              "type": "uint256"
            },
            {
              "internalType": "bytes",
              "name": "operatorPublicKey",
              "type": "bytes"
            },
            {
              "internalType": "bytes",
              "name": "sharedPublicKey",
              "type": "bytes"
            },
            {
              "internalType": "bytes",
              "name": "encryptedKey",
              "type": "bytes"
            }
          ],
          "indexed": false,
          "internalType": "struct ISSVNetwork.Oess[]",
          "name": "oessList",
          "type": "tuple[]"
        }
      ],
      "name": "ValidatorAdded",
      "type": "event"
    },
    {
      "anonymous": false,
      "inputs": [
        {
          "indexed": false,
          "internalType": "bytes",
          "name": "publicKey",
          "type": "bytes"
        }
      ],
      "name": "ValidatorDeleted",
      "type": "event"
    },
    {
      "anonymous": false,
      "inputs": [
        {
          "indexed": false,
          "internalType": "address",
          "name": "ownerAddress",
          "type": "address"
        },
        {
          "indexed": false,
          "internalType": "bytes",
          "name": "publicKey",
          "type": "bytes"
        },
        {
          "components": [
            {
              "internalType": "uint256",
              "name": "index",
              "type": "uint256"
            },
            {
              "internalType": "bytes",
              "name": "operatorPublicKey",
              "type": "bytes"
            },
            {
              "internalType": "bytes",
              "name": "sharedPublicKey",
              "type": "bytes"
            },
            {
              "internalType": "bytes",
              "name": "encryptedKey",
              "type": "bytes"
            }
          ],
          "indexed": false,
          "internalType": "struct ISSVNetwork.Oess[]",
          "name": "oessList",
          "type": "tuple[]"
        }
      ],
      "name": "ValidatorUpdated",
      "type": "event"
    },
    {
      "inputs": [
        {
          "internalType": "string",
          "name": "_name",
          "type": "string"
        },
        {
          "internalType": "address",
          "name": "_ownerAddress",
          "type": "address"
        },
        {
          "internalType": "bytes",
          "name": "_publicKey",
          "type": "bytes"
        }
      ],
      "name": "addOperator",
      "outputs": [],
      "stateMutability": "nonpayable",
      "type": "function"
    },
    {
      "inputs": [
        {
          "internalType": "address",
          "name": "_ownerAddress",
          "type": "address"
        },
        {
          "internalType": "bytes",
          "name": "_publicKey",
          "type": "bytes"
        },
        {
          "internalType": "bytes[]",
          "name": "_operatorPublicKeys",
          "type": "bytes[]"
        },
        {
          "internalType": "bytes[]",
          "name": "_sharesPublicKeys",
          "type": "bytes[]"
        },
        {
          "internalType": "bytes[]",
          "name": "_encryptedKeys",
          "type": "bytes[]"
        }
      ],
      "name": "addValidator",
      "outputs": [],
      "stateMutability": "nonpayable",
      "type": "function"
    },
    {
      "inputs": [
        {
          "internalType": "bytes",
          "name": "_publicKey",
          "type": "bytes"
        }
      ],
      "name": "deleteOperator",
      "outputs": [],
      "stateMutability": "nonpayable",
      "type": "function"
    },
    {
      "inputs": [
        {
          "internalType": "bytes",
          "name": "_publicKey",
          "type": "bytes"
        }
      ],
      "name": "deleteValidator",
      "outputs": [],
      "stateMutability": "nonpayable",
      "type": "function"
    },
    {
      "inputs": [],
      "name": "operatorCount",
      "outputs": [
        {
          "internalType": "uint256",
          "name": "",
          "type": "uint256"
        }
      ],
      "stateMutability": "view",
      "type": "function"
    },
    {
      "inputs": [
        {
          "internalType": "bytes",
          "name": "",
          "type": "bytes"
        }
      ],
      "name": "operators",
      "outputs": [
        {
          "internalType": "string",
          "name": "name",
          "type": "string"
        },
        {
          "internalType": "address",
          "name": "ownerAddress",
          "type": "address"
        },
        {
          "internalType": "bytes",
          "name": "publicKey",
          "type": "bytes"
        },
        {
          "internalType": "uint256",
          "name": "score",
          "type": "uint256"
        }
      ],
      "stateMutability": "view",
      "type": "function"
    },
    {
      "inputs": [
        {
          "internalType": "bytes",
          "name": "_publicKey",
          "type": "bytes"
        },
        {
          "internalType": "bytes[]",
          "name": "_operatorPublicKeys",
          "type": "bytes[]"
        },
        {
          "internalType": "bytes[]",
          "name": "_sharesPublicKeys",
          "type": "bytes[]"
        },
        {
          "internalType": "bytes[]",
          "name": "_encryptedKeys",
          "type": "bytes[]"
        }
      ],
      "name": "updateValidator",
      "outputs": [],
      "stateMutability": "nonpayable",
      "type": "function"
    },
    {
      "inputs": [],
      "name": "validatorCount",
      "outputs": [
        {
          "internalType": "uint256",
          "name": "",
          "type": "uint256"
        }
      ],
      "stateMutability": "view",
      "type": "function"
    }
  ],
  "bytecode": "0x608060405234801561001057600080fd5b506118a8806100206000396000f3fe608060405234801561001057600080fd5b50600436106100875760003560e01c80634df4c7281161005b5780634df4c728146100f35780637c6f315814610106578063dcb23e8a1461010f578063e69b5ed41461012257610087565b8062f43a661461008c5780630f43a677146100a1578063292fa673146100bd5780634330dd70146100d0575b600080fd5b61009f61009a366004611482565b610135565b005b6100aa60015481565b6040519081526020015b60405180910390f35b61009f6100cb3660046112d9565b61034c565b6100e36100de3660046113d8565b61050c565b6040516100b4949392919061174e565b61009f610101366004611207565b61065e565b6100aa60005481565b61009f61011d366004611319565b610a7d565b61009f6101303660046112d9565b610e11565b60006001600160a01b031660028383604051610152929190611616565b908152604051908190036020019020600101546001600160a01b0316146101d55760405162461bcd60e51b815260206004820152602c60248201527f4f70657261746f7220776974682073616d65207075626c6963206b657920616c60448201526b72656164792065786973747360a01b60648201526084015b60405180910390fd5b604051806080016040528086868080601f0160208091040260200160405190810160405280939291908181526020018383808284376000920191909152505050908252506001600160a01b03851660208083019190915260408051601f86018390048302810183018252858152920191908590859081908401838280828437600092018290525093855250505060209091015260405160029061027b9085908590611616565b908152602001604051809103902060008201518160000190805190602001906102a5929190610fb6565b506020828101516001830180546001600160a01b0319166001600160a01b03909216919091179055604083015180516102e49260028501920190610fb6565b50606082015181600301559050507f39b34f12d0a1eb39d220d2acd5e293c894753a36ac66da43b832c9f1fdb8254e858585858560405161032995949392919061170c565b60405180910390a16000805490806103408361182b565b91905055505050505050565b818160028282604051610360929190611616565b90815260405190819003602001902060010154336001600160a01b03909116146103cc5760405162461bcd60e51b815260206004820152601c60248201527f43616c6c6572206973206e6f74206f70657261746f72206f776e65720000000060448201526064016101cc565b60006001600160a01b0316600285856040516103e9929190611616565b908152604051908190036020019020600101546001600160a01b031614156104625760405162461bcd60e51b815260206004820152602660248201527f4f70657261746f722077697468207075626c6963206b6579206973206e6f742060448201526565786973747360d01b60648201526084016101cc565b60028484604051610474929190611616565b908152604051908190036020019020600061048f828261103a565b6001820180546001600160a01b03191690556104af60028301600061103a565b506000600391909101819055805490806104c8836117d9565b91905055507f8a981e6f2f42fe9f3af05fb55652d8beddd28c48945b0203c006b859d9bee90f84846040516104fe9291906116f0565b60405180910390a150505050565b8051602081830181018051600282529282019190930120915280548190610532906117f0565b80601f016020809104026020016040519081016040528092919081815260200182805461055e906117f0565b80156105ab5780601f10610580576101008083540402835291602001916105ab565b820191906000526020600020905b81548152906001019060200180831161058e57829003601f168201915b505050600184015460028501805494956001600160a01b039092169491935091506105d5906117f0565b80601f0160208091040260200160405190810160405280929190818152602001828054610601906117f0565b801561064e5780601f106106235761010080835404028352916020019161064e565b820191906000526020600020905b81548152906001019060200180831161063157829003601f168201915b5050505050908060030154905084565b603087146106aa5760405162461bcd60e51b8152602060048201526019602482015278092dcecc2d8d2c840e0eac4d8d2c640d6caf240d8cadccee8d603b1b60448201526064016101cc565b84831480156106b857508481145b6107045760405162461bcd60e51b815260206004820181905260248201527f4f455353206461746120737472756374757265206973206e6f742076616c696460448201526064016101cc565b6001600160a01b0389166107525760405162461bcd60e51b815260206004820152601560248201527413dddb995c881859191c995cdcc81a5b9d985b1a59605a1b60448201526064016101cc565b60006001600160a01b03166003898960405161076f929190611616565b908152604051908190036020019020546001600160a01b0316146107eb5760405162461bcd60e51b815260206004820152602d60248201527f56616c696461746f7220776974682073616d65207075626c6963206b6579206160448201526c6c72656164792065786973747360981b60648201526084016101cc565b6000600389896040516107ff929190611616565b908152604051908190036020019020905061081e600182018a8a611079565b5080546001600160a01b0319166001600160a01b038b1617815560005b86811015610a1b578160020160405180608001604052808381526020018a8a8581811061087857634e487b7160e01b600052603260045260246000fd5b905060200281019061088a9190611794565b8080601f0160208091040260200160405190810160405280939291908181526020018383808284376000920191909152505050908252506020018888858181106108e457634e487b7160e01b600052603260045260246000fd5b90506020028101906108f69190611794565b8080601f01602080910402602001604051908101604052809392919081815260200183838082843760009201919091525050509082525060200186868581811061095057634e487b7160e01b600052603260045260246000fd5b90506020028101906109629190611794565b8080601f01602080910402602001604051908101604052809392919081815260200183838082843760009201829052509390945250508354600181810186559482526020918290208451600490920201908155818401518051949591946109cf9450918501920190610fb6565b50604082015180516109eb916002840191602090910190610fb6565b5060608201518051610a07916003840191602090910190610fb6565b50505080610a149061182b565b905061083b565b5060018054906000610a2c8361182b565b91905055507f8674c0b4bd63a0814bf1ae6d64d71cf4886880a8bdbd3d7c1eca89a37d1e92718a8a8a84600201604051610a699493929190611626565b60405180910390a150505050505050505050565b878760038282604051610a91929190611616565b90815260405190819003602001902054336001600160a01b0390911614610afa5760405162461bcd60e51b815260206004820152601d60248201527f43616c6c6572206973206e6f742076616c696461746f72206f776e657200000060448201526064016101cc565b60308914610b465760405162461bcd60e51b8152602060048201526019602482015278092dcecc2d8d2c840e0eac4d8d2c640d6caf240d8cadccee8d603b1b60448201526064016101cc565b8685148015610b5457508683145b610ba05760405162461bcd60e51b815260206004820181905260248201527f4f455353206461746120737472756374757265206973206e6f742076616c696460448201526064016101cc565b600060038b8b604051610bb4929190611616565b9081526040519081900360200190209050610bd36002820160006110ed565b60005b88811015610db6578160020160405180608001604052808381526020018c8c85818110610c1357634e487b7160e01b600052603260045260246000fd5b9050602002810190610c259190611794565b8080601f0160208091040260200160405190810160405280939291908181526020018383808284376000920191909152505050908252506020018a8a85818110610c7f57634e487b7160e01b600052603260045260246000fd5b9050602002810190610c919190611794565b8080601f016020809104026020016040519081016040528093929190818152602001838380828437600092019190915250505090825250602001888885818110610ceb57634e487b7160e01b600052603260045260246000fd5b9050602002810190610cfd9190611794565b8080601f0160208091040260200160405190810160405280939291908181526020018383808284376000920182905250939094525050835460018181018655948252602091829020845160049092020190815581840151805194959194610d6a9450918501920190610fb6565b5060408201518051610d86916002840191602090910190610fb6565b5060608201518051610da2916003840191602090910190610fb6565b50505080610daf9061182b565b9050610bd6565b5080546040517fed4a43e0585574b768dc49fff8fe98366b84a1280ae164d67cb362b451423fa691610dfc916001600160a01b03909116908e908e906002870190611626565b60405180910390a15050505050505050505050565b818160038282604051610e25929190611616565b90815260405190819003602001902054336001600160a01b0390911614610e8e5760405162461bcd60e51b815260206004820152601d60248201527f43616c6c6572206973206e6f742076616c696461746f72206f776e657200000060448201526064016101cc565b60006001600160a01b031660038585604051610eab929190611616565b908152604051908190036020019020546001600160a01b03161415610f225760405162461bcd60e51b815260206004820152602760248201527f56616c696461746f722077697468207075626c6963206b6579206973206e6f746044820152662065786973747360c81b60648201526084016101cc565b60038484604051610f34929190611616565b90815260405190819003602001902080546001600160a01b03191681556000610f60600183018261103a565b610f6e6002830160006110ed565b505060018054906000610f80836117d9565b91905055507f41c089aedc6ea148360cea70b2a95232e72646345854e490d533f14204073f0884846040516104fe9291906116f0565b828054610fc2906117f0565b90600052602060002090601f016020900481019282610fe4576000855561102a565b82601f10610ffd57805160ff191683800117855561102a565b8280016001018555821561102a579182015b8281111561102a57825182559160200191906001019061100f565b5061103692915061110e565b5090565b508054611046906117f0565b6000825580601f106110585750611076565b601f016020900490600052602060002090810190611076919061110e565b50565b828054611085906117f0565b90600052602060002090601f0160209004810192826110a7576000855561102a565b82601f106110c05782800160ff1982351617855561102a565b8280016001018555821561102a579182015b8281111561102a5782358255916020019190600101906110d2565b50805460008255600402906000526020600020908101906110769190611123565b5b80821115611036576000815560010161110f565b8082111561103657600080825561113d600183018261103a565b61114b60028301600061103a565b61115960038301600061103a565b50600401611123565b80356001600160a01b038116811461117957600080fd5b919050565b60008083601f84011261118f578081fd5b50813567ffffffffffffffff8111156111a6578182fd5b60208301915083602080830285010111156111c057600080fd5b9250929050565b60008083601f8401126111d8578182fd5b50813567ffffffffffffffff8111156111ef578182fd5b6020830191508360208285010111156111c057600080fd5b600080600080600080600080600060a08a8c031215611224578485fd5b61122d8a611162565b985060208a013567ffffffffffffffff80821115611249578687fd5b6112558d838e016111c7565b909a50985060408c013591508082111561126d578687fd5b6112798d838e0161117e565b909850965060608c0135915080821115611291578586fd5b61129d8d838e0161117e565b909650945060808c01359150808211156112b5578384fd5b506112c28c828d0161117e565b915080935050809150509295985092959850929598565b600080602083850312156112eb578182fd5b823567ffffffffffffffff811115611301578283fd5b61130d858286016111c7565b90969095509350505050565b6000806000806000806000806080898b031215611334578384fd5b883567ffffffffffffffff8082111561134b578586fd5b6113578c838d016111c7565b909a50985060208b013591508082111561136f578586fd5b61137b8c838d0161117e565b909850965060408b0135915080821115611393578586fd5b61139f8c838d0161117e565b909650945060608b01359150808211156113b7578384fd5b506113c48b828c0161117e565b999c989b5096995094979396929594505050565b6000602082840312156113e9578081fd5b813567ffffffffffffffff80821115611400578283fd5b818401915084601f830112611413578283fd5b8135818111156114255761142561185c565b604051601f8201601f19908116603f0116810190838211818310171561144d5761144d61185c565b81604052828152876020848701011115611465578586fd5b826020860160208301379182016020019490945295945050505050565b600080600080600060608688031215611499578081fd5b853567ffffffffffffffff808211156114b0578283fd5b6114bc89838a016111c7565b90975095508591506114d060208901611162565b945060408801359150808211156114e5578283fd5b506114f2888289016111c7565b969995985093965092949392505050565b60008284528282602086013780602084860101526020601f19601f85011685010190509392505050565b60008151808452815b8181101561155257602081850181015186830182015201611536565b818111156115635782602083870101525b50601f01601f19169290920160200192915050565b80546000906002810460018083168061159257607f831692505b60208084108214156115b257634e487b7160e01b86526022600452602486fd5b838852602088018280156115cd57600181146115de57611609565b60ff19871682528282019750611609565b60008981526020902060005b87811015611603578154848201529086019084016115ea565b83019850505b5050505050505092915050565b6000828483379101908152919050565b6001600160a01b0385168152606060208083018290526000919061164d8483018789611503565b604085820381870152818754808452848401915084858202850101898852858820885b838110156116dd57601f19878403018552608082548452808985015261169b81850160018501611578565b9050838103878501526116b18160028501611578565b90508381038a8501526116c78160038501611578565b9589019593505060049190910190600101611670565b50909d9c50505050505050505050505050565b600060208252611704602083018486611503565b949350505050565b600060608252611720606083018789611503565b6001600160a01b03861660208401528281036040840152611742818587611503565b98975050505050505050565b600060808252611761608083018761152d565b6001600160a01b03861660208401528281036040840152611782818661152d565b91505082606083015295945050505050565b6000808335601e198436030181126117aa578283fd5b83018035915067ffffffffffffffff8211156117c4578283fd5b6020019150368190038213156111c057600080fd5b6000816117e8576117e8611846565b506000190190565b60028104600182168061180457607f821691505b6020821081141561182557634e487b7160e01b600052602260045260246000fd5b50919050565b600060001982141561183f5761183f611846565b5060010190565b634e487b7160e01b600052601160045260246000fd5b634e487b7160e01b600052604160045260246000fdfea2646970667358221220d81bf374f0244d96499acfebaeb77f0e66cba9aa55c951f54af5179900f16bbe64736f6c63430008020033",
  "linkReferences": {},
  "deployedLinkReferences": {}
}