{
  "_format": "hh-sol-artifact-1",
  "contractName": "SSVNetwork",
  "sourceName": "contracts/SSVNetwork.sol",
  "abi": [
    {
      "anonymous": false,
      "inputs": [
        {
          "indexed": false,
          "internalType": "bytes",
          "name": "validatorPublicKey",
          "type": "bytes"
        },
        {
          "indexed": false,
          "internalType": "uint256",
          "name": "index",
          "type": "uint256"
        },
        {
          "indexed": false,
          "internalType": "bytes",
          "name": "operatorPublicKey",
          "type": "bytes"
        },
        {
          "indexed": false,
          "internalType": "bytes",
          "name": "sharedPublicKey",
          "type": "bytes"
        },
        {
          "indexed": false,
          "internalType": "bytes",
          "name": "encryptedKey",
          "type": "bytes"
        }
      ],
      "name": "OessAdded",
      "type": "event"
    },
    {
      "anonymous": false,
      "inputs": [
        {
          "indexed": false,
          "internalType": "string",
          "name": "name",
          "type": "string"
        },
        {
          "indexed": false,
          "internalType": "address",
          "name": "ownerAddress",
          "type": "address"
        },
        {
          "indexed": false,
          "internalType": "bytes",
          "name": "publicKey",
          "type": "bytes"
        }
      ],
      "name": "OperatorAdded",
      "type": "event"
    },
    {
      "anonymous": false,
      "inputs": [
        {
          "indexed": false,
          "internalType": "string",
          "name": "name",
          "type": "string"
        },
        {
          "indexed": false,
          "internalType": "bytes",
          "name": "publicKey",
          "type": "bytes"
        }
      ],
      "name": "OperatorDeleted",
      "type": "event"
    },
    {
      "anonymous": false,
      "inputs": [
        {
          "indexed": false,
          "internalType": "address",
          "name": "ownerAddress",
          "type": "address"
        },
        {
          "indexed": false,
          "internalType": "bytes",
          "name": "publicKey",
          "type": "bytes"
        },
        {
          "components": [
            {
              "internalType": "uint256",
              "name": "index",
              "type": "uint256"
            },
            {
              "internalType": "bytes",
              "name": "operatorPublicKey",
              "type": "bytes"
            },
            {
              "internalType": "bytes",
              "name": "sharedPublicKey",
              "type": "bytes"
            },
            {
              "internalType": "bytes",
              "name": "encryptedKey",
              "type": "bytes"
            }
          ],
          "indexed": false,
          "internalType": "struct ISSVNetwork.Oess[]",
          "name": "oessList",
          "type": "tuple[]"
        }
      ],
      "name": "ValidatorAdded",
      "type": "event"
    },
    {
      "anonymous": false,
      "inputs": [
        {
          "indexed": false,
          "internalType": "address",
          "name": "ownerAddress",
          "type": "address"
        },
        {
          "indexed": false,
          "internalType": "bytes",
          "name": "publicKey",
          "type": "bytes"
        }
      ],
      "name": "ValidatorDeleted",
      "type": "event"
    },
    {
      "anonymous": false,
      "inputs": [
        {
          "indexed": false,
          "internalType": "address",
          "name": "ownerAddress",
          "type": "address"
        },
        {
          "indexed": false,
          "internalType": "bytes",
          "name": "publicKey",
          "type": "bytes"
        },
        {
          "components": [
            {
              "internalType": "uint256",
              "name": "index",
              "type": "uint256"
            },
            {
              "internalType": "bytes",
              "name": "operatorPublicKey",
              "type": "bytes"
            },
            {
              "internalType": "bytes",
              "name": "sharedPublicKey",
              "type": "bytes"
            },
            {
              "internalType": "bytes",
              "name": "encryptedKey",
              "type": "bytes"
            }
          ],
          "indexed": false,
          "internalType": "struct ISSVNetwork.Oess[]",
          "name": "oessList",
          "type": "tuple[]"
        }
      ],
      "name": "ValidatorUpdated",
      "type": "event"
    },
    {
      "inputs": [
        {
          "internalType": "string",
          "name": "_name",
          "type": "string"
        },
        {
          "internalType": "address",
          "name": "_ownerAddress",
          "type": "address"
        },
        {
          "internalType": "bytes",
          "name": "_publicKey",
          "type": "bytes"
        }
      ],
      "name": "addOperator",
      "outputs": [],
      "stateMutability": "nonpayable",
      "type": "function"
    },
    {
      "inputs": [
        {
          "internalType": "address",
          "name": "_ownerAddress",
          "type": "address"
        },
        {
          "internalType": "bytes",
          "name": "_publicKey",
          "type": "bytes"
        },
        {
          "internalType": "bytes[]",
          "name": "_operatorPublicKeys",
          "type": "bytes[]"
        },
        {
          "internalType": "bytes[]",
          "name": "_sharesPublicKeys",
          "type": "bytes[]"
        },
        {
          "internalType": "bytes[]",
          "name": "_encryptedKeys",
          "type": "bytes[]"
        }
      ],
      "name": "addValidator",
      "outputs": [],
      "stateMutability": "nonpayable",
      "type": "function"
    },
    {
      "inputs": [
        {
          "internalType": "bytes",
          "name": "_publicKey",
          "type": "bytes"
        }
      ],
      "name": "deleteOperator",
      "outputs": [],
      "stateMutability": "nonpayable",
      "type": "function"
    },
    {
      "inputs": [
        {
          "internalType": "bytes",
          "name": "_publicKey",
          "type": "bytes"
        }
      ],
      "name": "deleteValidator",
      "outputs": [],
      "stateMutability": "nonpayable",
      "type": "function"
    },
    {
      "inputs": [],
      "name": "operatorCount",
      "outputs": [
        {
          "internalType": "uint256",
          "name": "",
          "type": "uint256"
        }
      ],
      "stateMutability": "view",
      "type": "function"
    },
    {
      "inputs": [
        {
          "internalType": "bytes",
          "name": "",
          "type": "bytes"
        }
      ],
      "name": "operators",
      "outputs": [
        {
          "internalType": "string",
          "name": "name",
          "type": "string"
        },
        {
          "internalType": "address",
          "name": "ownerAddress",
          "type": "address"
        },
        {
          "internalType": "bytes",
          "name": "publicKey",
          "type": "bytes"
        },
        {
          "internalType": "uint256",
          "name": "score",
          "type": "uint256"
        }
      ],
      "stateMutability": "view",
      "type": "function"
    },
    {
      "inputs": [
        {
          "internalType": "bytes",
          "name": "_publicKey",
          "type": "bytes"
        },
        {
          "internalType": "bytes[]",
          "name": "_operatorPublicKeys",
          "type": "bytes[]"
        },
        {
          "internalType": "bytes[]",
          "name": "_sharesPublicKeys",
          "type": "bytes[]"
        },
        {
          "internalType": "bytes[]",
          "name": "_encryptedKeys",
          "type": "bytes[]"
        }
      ],
      "name": "updateValidator",
      "outputs": [],
      "stateMutability": "nonpayable",
      "type": "function"
    },
    {
      "inputs": [],
      "name": "validatorCount",
      "outputs": [
        {
          "internalType": "uint256",
          "name": "",
          "type": "uint256"
        }
      ],
      "stateMutability": "view",
      "type": "function"
    }
  ],
  "bytecode": "0x608060405234801561001057600080fd5b506119ad806100206000396000f3fe608060405234801561001057600080fd5b50600436106100875760003560e01c80634df4c7281161005b5780634df4c728146100f35780637c6f315814610106578063dcb23e8a1461010f578063e69b5ed41461012257610087565b8062f43a661461008c5780630f43a677146100a1578063292fa673146100bd5780634330dd70146100d0575b600080fd5b61009f61009a3660046114fe565b610135565b005b6100aa60015481565b6040519081526020015b60405180910390f35b61009f6100cb366004611355565b61034c565b6100e36100de366004611454565b6105bd565b6040516100b494939291906117dc565b61009f610101366004611283565b61070f565b6100aa60005481565b61009f61011d366004611395565b610a98565b61009f610130366004611355565b610dea565b60006001600160a01b031660028383604051610152929190611692565b908152604051908190036020019020600101546001600160a01b0316146101d55760405162461bcd60e51b815260206004820152602c60248201527f4f70657261746f7220776974682073616d65207075626c6963206b657920616c60448201526b72656164792065786973747360a01b60648201526084015b60405180910390fd5b604051806080016040528086868080601f0160208091040260200160405190810160405280939291908181526020018383808284376000920191909152505050908252506001600160a01b03851660208083019190915260408051601f86018390048302810183018252858152920191908590859081908401838280828437600092018290525093855250505060209091015260405160029061027b9085908590611692565b908152602001604051809103902060008201518160000190805190602001906102a5929190611032565b506020828101516001830180546001600160a01b0319166001600160a01b03909216919091179055604083015180516102e49260028501920190611032565b50606082015181600301559050507f39b34f12d0a1eb39d220d2acd5e293c894753a36ac66da43b832c9f1fdb8254e858585858560405161032995949392919061179a565b60405180910390a160008054908061034083611930565b91905055505050505050565b818160006001600160a01b03166002838360405161036b929190611692565b908152604051908190036020019020600101546001600160a01b031614156103e45760405162461bcd60e51b815260206004820152602660248201527f4f70657261746f722077697468207075626c6963206b6579206973206e6f742060448201526565786973747360d01b60648201526084016101cc565b600282826040516103f6929190611692565b90815260405190819003602001902060010154336001600160a01b03909116146104625760405162461bcd60e51b815260206004820152601c60248201527f43616c6c6572206973206e6f74206f70657261746f72206f776e65720000000060448201526064016101cc565b600060028585604051610476929190611692565b9081526040519081900360200190208054610490906118f5565b80601f01602080910402602001604051908101604052809291908181526020018280546104bc906118f5565b80156105095780601f106104de57610100808354040283529160200191610509565b820191906000526020600020905b8154815290600101906020018083116104ec57829003601f168201915b5050505050905060028585604051610522929190611692565b908152604051908190036020019020600061053d82826110b6565b6001820180546001600160a01b031916905561055d6002830160006110b6565b50600060039190910181905580549080610576836118de565b91905055507feb4dcac5e736fac65b977e14366182207ef6412805864745c062eac4acfdede18186866040516105ae93929190611822565b60405180910390a15050505050565b80516020818301810180516002825292820191909301209152805481906105e3906118f5565b80601f016020809104026020016040519081016040528092919081815260200182805461060f906118f5565b801561065c5780601f106106315761010080835404028352916020019161065c565b820191906000526020600020905b81548152906001019060200180831161063f57829003601f168201915b505050600184015460028501805494956001600160a01b03909216949193509150610686906118f5565b80601f01602080910402602001604051908101604052809291908181526020018280546106b2906118f5565b80156106ff5780601f106106d4576101008083540402835291602001916106ff565b820191906000526020600020905b8154815290600101906020018083116106e257829003601f168201915b5050505050908060030154905084565b61071f8888888888888888610f7e565b6001600160a01b03891661076d5760405162461bcd60e51b815260206004820152601560248201527413dddb995c881859191c995cdcc81a5b9d985b1a59605a1b60448201526064016101cc565b60006001600160a01b03166003898960405161078a929190611692565b908152604051908190036020019020546001600160a01b0316146108065760405162461bcd60e51b815260206004820152602d60248201527f56616c696461746f7220776974682073616d65207075626c6963206b6579206160448201526c6c72656164792065786973747360981b60648201526084016101cc565b60006003898960405161081a929190611692565b9081526040519081900360200190209050610839600182018a8a6110f5565b5080546001600160a01b0319166001600160a01b038b1617815560005b86811015610a36578160020160405180608001604052808381526020018a8a8581811061089357634e487b7160e01b600052603260045260246000fd5b90506020028101906108a59190611899565b8080601f0160208091040260200160405190810160405280939291908181526020018383808284376000920191909152505050908252506020018888858181106108ff57634e487b7160e01b600052603260045260246000fd5b90506020028101906109119190611899565b8080601f01602080910402602001604051908101604052809392919081815260200183838082843760009201919091525050509082525060200186868581811061096b57634e487b7160e01b600052603260045260246000fd5b905060200281019061097d9190611899565b8080601f01602080910402602001604051908101604052809392919081815260200183838082843760009201829052509390945250508354600181810186559482526020918290208451600490920201908155818401518051949591946109ea9450918501920190611032565b5060408201518051610a06916002840191602090910190611032565b5060608201518051610a22916003840191602090910190611032565b50505080610a2f90611930565b9050610856565b5060018054906000610a4783611930565b91905055507f8674c0b4bd63a0814bf1ae6d64d71cf4886880a8bdbd3d7c1eca89a37d1e92718a8a8a84600201604051610a8494939291906116d0565b60405180910390a150505050505050505050565b878760006001600160a01b031660038383604051610ab7929190611692565b908152604051908190036020019020546001600160a01b03161415610aee5760405162461bcd60e51b81526004016101cc90611852565b60038282604051610b00929190611692565b90815260405190819003602001902054336001600160a01b0390911614610b695760405162461bcd60e51b815260206004820152601d60248201527f43616c6c6572206973206e6f742076616c696461746f72206f776e657200000060448201526064016101cc565b610b798a8a8a8a8a8a8a8a610f7e565b600060038b8b604051610b8d929190611692565b9081526040519081900360200190209050610bac600282016000611169565b60005b88811015610d8f578160020160405180608001604052808381526020018c8c85818110610bec57634e487b7160e01b600052603260045260246000fd5b9050602002810190610bfe9190611899565b8080601f0160208091040260200160405190810160405280939291908181526020018383808284376000920191909152505050908252506020018a8a85818110610c5857634e487b7160e01b600052603260045260246000fd5b9050602002810190610c6a9190611899565b8080601f016020809104026020016040519081016040528093929190818152602001838380828437600092019190915250505090825250602001888885818110610cc457634e487b7160e01b600052603260045260246000fd5b9050602002810190610cd69190611899565b8080601f0160208091040260200160405190810160405280939291908181526020018383808284376000920182905250939094525050835460018181018655948252602091829020845160049092020190815581840151805194959194610d439450918501920190611032565b5060408201518051610d5f916002840191602090910190611032565b5060608201518051610d7b916003840191602090910190611032565b50505080610d8890611930565b9050610baf565b5080546040517fed4a43e0585574b768dc49fff8fe98366b84a1280ae164d67cb362b451423fa691610dd5916001600160a01b03909116908e908e9060028701906116d0565b60405180910390a15050505050505050505050565b818160006001600160a01b031660038383604051610e09929190611692565b908152604051908190036020019020546001600160a01b03161415610e405760405162461bcd60e51b81526004016101cc90611852565b60038282604051610e52929190611692565b90815260405190819003602001902054336001600160a01b0390911614610ebb5760405162461bcd60e51b815260206004820152601d60248201527f43616c6c6572206973206e6f742076616c696461746f72206f776e657200000060448201526064016101cc565b600060038585604051610ecf929190611692565b908152604051908190036020018120546001600160a01b03169150600390610efa9087908790611692565b90815260405190819003602001902080546001600160a01b03191681556000610f2660018301826110b6565b610f34600283016000611169565b505060018054906000610f46836118de565b91905055507f4c63bf11b116f386ae0aee6d8d6df531b5ed877eb5d2073119ddb4769ba3f3128186866040516105ae939291906116a2565b60308714610fce5760405162461bcd60e51b815260206004820152601960248201527f496e76616c6964207075626c6963206b6579206c656e6774680000000000000060448201526064016101cc565b8483148015610fdc57508481145b6110285760405162461bcd60e51b815260206004820181905260248201527f4f455353206461746120737472756374757265206973206e6f742076616c696460448201526064016101cc565b5050505050505050565b82805461103e906118f5565b90600052602060002090601f01602090048101928261106057600085556110a6565b82601f1061107957805160ff19168380011785556110a6565b828001600101855582156110a6579182015b828111156110a657825182559160200191906001019061108b565b506110b292915061118a565b5090565b5080546110c2906118f5565b6000825580601f106110d457506110f2565b601f0160209004906000526020600020908101906110f2919061118a565b50565b828054611101906118f5565b90600052602060002090601f01602090048101928261112357600085556110a6565b82601f1061113c5782800160ff198235161785556110a6565b828001600101855582156110a6579182015b828111156110a657823582559160200191906001019061114e565b50805460008255600402906000526020600020908101906110f2919061119f565b5b808211156110b2576000815560010161118b565b808211156110b25760008082556111b960018301826110b6565b6111c76002830160006110b6565b6111d56003830160006110b6565b5060040161119f565b80356001600160a01b03811681146111f557600080fd5b919050565b60008083601f84011261120b578081fd5b50813567ffffffffffffffff811115611222578182fd5b602083019150836020808302850101111561123c57600080fd5b9250929050565b60008083601f840112611254578182fd5b50813567ffffffffffffffff81111561126b578182fd5b60208301915083602082850101111561123c57600080fd5b600080600080600080600080600060a08a8c0312156112a0578485fd5b6112a98a6111de565b985060208a013567ffffffffffffffff808211156112c5578687fd5b6112d18d838e01611243565b909a50985060408c01359150808211156112e9578687fd5b6112f58d838e016111fa565b909850965060608c013591508082111561130d578586fd5b6113198d838e016111fa565b909650945060808c0135915080821115611331578384fd5b5061133e8c828d016111fa565b915080935050809150509295985092959850929598565b60008060208385031215611367578182fd5b823567ffffffffffffffff81111561137d578283fd5b61138985828601611243565b90969095509350505050565b6000806000806000806000806080898b0312156113b0578384fd5b883567ffffffffffffffff808211156113c7578586fd5b6113d38c838d01611243565b909a50985060208b01359150808211156113eb578586fd5b6113f78c838d016111fa565b909850965060408b013591508082111561140f578586fd5b61141b8c838d016111fa565b909650945060608b0135915080821115611433578384fd5b506114408b828c016111fa565b999c989b5096995094979396929594505050565b600060208284031215611465578081fd5b813567ffffffffffffffff8082111561147c578283fd5b818401915084601f83011261148f578283fd5b8135818111156114a1576114a1611961565b604051601f8201601f19908116603f011681019083821181831017156114c9576114c9611961565b816040528281528760208487010111156114e1578586fd5b826020860160208301379182016020019490945295945050505050565b600080600080600060608688031215611515578081fd5b853567ffffffffffffffff8082111561152c578283fd5b61153889838a01611243565b909750955085915061154c602089016111de565b94506040880135915080821115611561578283fd5b5061156e88828901611243565b969995985093965092949392505050565b60008284528282602086013780602084860101526020601f19601f85011685010190509392505050565b60008151808452815b818110156115ce576020818501810151868301820152016115b2565b818111156115df5782602083870101525b50601f01601f19169290920160200192915050565b80546000906002810460018083168061160e57607f831692505b602080841082141561162e57634e487b7160e01b86526022600452602486fd5b83885260208801828015611649576001811461165a57611685565b60ff19871682528282019750611685565b60008981526020902060005b8781101561167f57815484820152908601908401611666565b83019850505b5050505050505092915050565b6000828483379101908152919050565b6001600160a01b03841681526040602082018190526000906116c7908301848661157f565b95945050505050565b6001600160a01b038516815260606020808301829052600091906116f7848301878961157f565b604085820381870152818754808452848401915084858202850101898852858820885b8381101561178757601f198784030185526080825484528089850152611745818501600185016115f4565b90508381038785015261175b81600285016115f4565b90508381038a85015261177181600385016115f4565b958901959350506004919091019060010161171a565b50909d9c50505050505050505050505050565b6000606082526117ae60608301878961157f565b6001600160a01b038616602084015282810360408401526117d081858761157f565b98975050505050505050565b6000608082526117ef60808301876115a9565b6001600160a01b0386166020840152828103604084015261181081866115a9565b91505082606083015295945050505050565b60006040825261183560408301866115a9565b828103602084015261184881858761157f565b9695505050505050565b60208082526027908201527f56616c696461746f722077697468207075626c6963206b6579206973206e6f746040820152662065786973747360c81b606082015260800190565b6000808335601e198436030181126118af578283fd5b83018035915067ffffffffffffffff8211156118c9578283fd5b60200191503681900382131561123c57600080fd5b6000816118ed576118ed61194b565b506000190190565b60028104600182168061190957607f821691505b6020821081141561192a57634e487b7160e01b600052602260045260246000fd5b50919050565b60006000198214156119445761194461194b565b5060010190565b634e487b7160e01b600052601160045260246000fd5b634e487b7160e01b600052604160045260246000fdfea2646970667358221220af2cc8e3e676122a3e97c0396646099504d8bd0a7cd65451dd80c6e88672fc7e64736f6c63430008020033",
  "linkReferences": {},
  "deployedLinkReferences": {}
}