{
  "_format": "hh-sol-artifact-1",
  "contractName": "SSVNetwork",
  "sourceName": "contracts/SSVNetwork.sol",
  "abi": [
    {
      "anonymous": false,
      "inputs": [
        {
          "indexed": false,
          "internalType": "string",
          "name": "name",
          "type": "string"
        },
        {
          "indexed": false,
          "internalType": "bytes",
          "name": "pubkey",
          "type": "bytes"
        },
        {
          "indexed": false,
          "internalType": "address",
          "name": "paymentAddress",
          "type": "address"
        }
      ],
      "name": "OperatorAdded",
      "type": "event"
    },
    {
      "anonymous": false,
      "inputs": [
        {
          "indexed": false,
          "internalType": "bytes",
          "name": "pubkey",
          "type": "bytes"
        },
        {
          "indexed": false,
          "internalType": "address",
          "name": "ownerAddress",
          "type": "address"
        },
        {
          "indexed": false,
          "internalType": "bytes",
          "name": "oess",
          "type": "bytes"
        }
      ],
      "name": "ValidatorAdded",
      "type": "event"
    },
    {
      "inputs": [
        {
          "internalType": "string",
          "name": "_name",
          "type": "string"
        },
        {
          "internalType": "string",
          "name": "_pubkey",
          "type": "string"
        },
        {
          "internalType": "address",
          "name": "_paymentAddress",
          "type": "address"
        }
      ],
      "name": "addOperator",
      "outputs": [],
      "stateMutability": "nonpayable",
      "type": "function"
    },
    {
      "inputs": [
        {
          "internalType": "string",
          "name": "pubkey",
          "type": "string"
        },
        {
          "internalType": "string[]",
          "name": "operatorPubKeys",
          "type": "string[]"
        },
        {
          "internalType": "uint256[]",
          "name": "indexes",
          "type": "uint256[]"
        },
        {
          "internalType": "string[]",
          "name": "sharePubKeys",
          "type": "string[]"
        },
        {
          "internalType": "string[]",
          "name": "encryptedKeys",
          "type": "string[]"
        },
        {
          "internalType": "address",
          "name": "ownerAddress",
          "type": "address"
        }
      ],
      "name": "addValidator",
      "outputs": [],
      "stateMutability": "nonpayable",
      "type": "function"
    },
    {
      "inputs": [
        {
          "internalType": "string",
          "name": "pubkey",
          "type": "string"
        }
      ],
      "name": "getOperator",
      "outputs": [
        {
          "internalType": "string",
          "name": "",
          "type": "string"
        },
        {
          "internalType": "bytes",
          "name": "",
          "type": "bytes"
        },
        {
          "internalType": "uint256",
          "name": "",
          "type": "uint256"
        },
        {
          "internalType": "address",
          "name": "",
          "type": "address"
        }
      ],
      "stateMutability": "view",
      "type": "function"
    },
    {
      "inputs": [],
      "name": "operatorCount",
      "outputs": [
        {
          "internalType": "uint256",
          "name": "",
          "type": "uint256"
        }
      ],
      "stateMutability": "view",
      "type": "function"
    },
    {
      "inputs": [],
      "name": "validatorCount",
      "outputs": [
        {
          "internalType": "uint256",
          "name": "",
          "type": "uint256"
        }
      ],
      "stateMutability": "view",
      "type": "function"
    }
  ],
  "bytecode": "0x608060405234801561001057600080fd5b50611ac4806100206000396000f3fe608060405234801561001057600080fd5b50600436106100575760003560e01c80630f43a6771461005c57806324d470241461007a5780637c6f3158146100ad5780637dc0997a146100cb5780638a24570f146100e7575b600080fd5b610064610103565b60405161007191906118d1565b60405180910390f35b610094600480360381019061008f9190611146565b610109565b6040516100a494939291906117dc565b60405180910390f35b6100b56103b6565b6040516100c291906118d1565b60405180910390f35b6100e560048036038101906100e091906112a4565b6103bc565b005b61010160048036038101906100fc919061118b565b61061b565b005b60015481565b606080600080606086868080601f016020809104026020016040519081016040528093929190818152602001838380828437600081840152601f19601f82011690508083019250505050505050905060028160405161016891906116e6565b908152602001604051809103902060030160149054906101000a900460ff166101c6576040517f08c379a00000000000000000000000000000000000000000000000000000000081526004016101bd9061184f565b60405180910390fd5b6002816040516101d691906116e6565b90815260200160405180910390206000016002826040516101f791906116e6565b908152602001604051809103902060010160028360405161021891906116e6565b90815260200160405180910390206002015460028460405161023a91906116e6565b908152602001604051809103902060030160009054906101000a900473ffffffffffffffffffffffffffffffffffffffff16838054600181600116156101000203166002900480601f0160208091040260200160405190810160405280929190818152602001828054600181600116156101000203166002900480156103015780601f106102d657610100808354040283529160200191610301565b820191906000526020600020905b8154815290600101906020018083116102e457829003601f168201915b50505050509350828054600181600116156101000203166002900480601f01602080910402602001604051908101604052809291908181526020018280546001816001161561010002031660029004801561039d5780601f106103725761010080835404028352916020019161039d565b820191906000526020600020905b81548152906001019060200180831161038057829003601f168201915b5050505050925094509450945094505092959194509250565b60005481565b606083838080601f016020809104026020016040519081016040528093929190818152602001838380828437600081840152601f19601f82011690508083019250505050505050905060028160405161041591906116e6565b908152602001604051809103902060030160149054906101000a900460ff1615610474576040517f08c379a000000000000000000000000000000000000000000000000000000000815260040161046b9061188f565b60405180910390fd5b6040518060a0016040528087878080601f016020809104026020016040519081016040528093929190818152602001838380828437600081840152601f19601f820116905080830192505050505050508152602001828152602001600081526020018373ffffffffffffffffffffffffffffffffffffffff1681526020016001151581525060028260405161050991906116e6565b90815260200160405180910390206000820151816000019080519060200190610533929190610f36565b506020820151816001019080519060200190610550929190610fb6565b506040820151816002015560608201518160030160006101000a81548173ffffffffffffffffffffffffffffffffffffffff021916908373ffffffffffffffffffffffffffffffffffffffff16021790555060808201518160030160146101000a81548160ff0219169083151502179055509050507fb4d5af90c36922d787dd770fafde663be568bd81026a5dba53b2c295ef291e9a868683856040516105fa9493929190611795565b60405180910390a16000808154809291906001019190505550505050505050565b606061066a8c8c8080601f016020809104026020016040519081016040528093929190818152602001838380828437600081840152601f19601f82011690508083019250505050505050610ac5565b905060308151148c8c90916106b6576040517f08c379a00000000000000000000000000000000000000000000000000000000081526004016106ad929190611771565b60405180910390fd5b5050858590508a8a90501480156106d257508383905086869050145b80156106e357508383905088889050145b610722576040517f08c379a00000000000000000000000000000000000000000000000000000000081526004016107199061182f565b60405180910390fd5b60038160405161073291906116e6565b908152602001604051809103902060020160149054906101000a900460ff1615610791576040517f08c379a00000000000000000000000000000000000000000000000000000000081526004016107889061186f565b60405180910390fd5b60006003826040516107a391906116e6565b90815260200160405180910390209050818160000190805190602001906107cb929190610fb6565b50828160020160006101000a81548173ffffffffffffffffffffffffffffffffffffffff021916908373ffffffffffffffffffffffffffffffffffffffff160217905550606060005b8c8c9050811015610a675760405180608001604052806108938f8f8581811061083957fe5b905060200281019061084b91906118ec565b8080601f016020809104026020016040519081016040528093929190818152602001838380828437600081840152601f19601f82011690508083019250505050505050610ac5565b81526020018c8c848181106108a457fe5b9050602002013581526020016109198b8b858181106108bf57fe5b90506020028101906108d191906118ec565b8080601f016020809104026020016040519081016040528093929190818152602001838380828437600081840152601f19601f82011690508083019250505050505050610ac5565b815260200161098789898581811061092d57fe5b905060200281019061093f91906118ec565b8080601f016020809104026020016040519081016040528093929190818152602001838380828437600081840152601f19601f82011690508083019250505050505050610ac5565b81525083600101600083815260200190815260200160002060008201518160000190805190602001906109bb929190610fb6565b506020820151816001015560408201518160020190805190602001906109e2929190610fb6565b5060608201518160030190805190602001906109ff929190610fb6565b5090505081836001016000838152602001908152602001600020604051602001610a2991906118af565b604051602081830303815290604052604051602001610a499291906116fd565b60405160208183030381529060405291508080600101915050610814565b507ffdf8305799107ea69c8d651b474b032adeb4043c581b0a2efe3ee85f8923b9f5838583604051610a9b9392919061172c565b60405180910390a16001600081548092919060010191905055505050505050505050505050505050565b60608082905060006002825181610ad857fe5b0614610ae357600080fd5b60606002825181610af057fe5b0467ffffffffffffffff81118015610b0757600080fd5b506040519080825280601f01601f191660200182016040528015610b3a5781602001600182028036833780820191505090505b50905060005b6002835181610b4b57fe5b04811015610bed57610b7b836001836002020181518110610b6857fe5b602001015160f81c60f81b60f81c610bf8565b6010610ba2858460020281518110610b8f57fe5b602001015160f81c60f81b60f81c610bf8565b020160f81b828281518110610bb357fe5b60200101907effffffffffffffffffffffffffffffffffffffffffffffffffffffffffffff1916908160001a905350806001019050610b40565b508092505050919050565b60007f30000000000000000000000000000000000000000000000000000000000000007effffffffffffffffffffffffffffffffffffffffffffffffffffffffffffff19168260f81b7effffffffffffffffffffffffffffffffffffffffffffffffffffffffffffff191610158015610cd857507f39000000000000000000000000000000000000000000000000000000000000007effffffffffffffffffffffffffffffffffffffffffffffffffffffffffffff19168260f81b7effffffffffffffffffffffffffffffffffffffffffffffffffffffffffffff191611155b15610d0a577f300000000000000000000000000000000000000000000000000000000000000060f81c82039050610f31565b7f61000000000000000000000000000000000000000000000000000000000000007effffffffffffffffffffffffffffffffffffffffffffffffffffffffffffff19168260f81b7effffffffffffffffffffffffffffffffffffffffffffffffffffffffffffff191610158015610de857507f66000000000000000000000000000000000000000000000000000000000000007effffffffffffffffffffffffffffffffffffffffffffffffffffffffffffff19168260f81b7effffffffffffffffffffffffffffffffffffffffffffffffffffffffffffff191611155b15610e1d577f610000000000000000000000000000000000000000000000000000000000000060f81c82600a01039050610f31565b7f41000000000000000000000000000000000000000000000000000000000000007effffffffffffffffffffffffffffffffffffffffffffffffffffffffffffff19168260f81b7effffffffffffffffffffffffffffffffffffffffffffffffffffffffffffff191610158015610efb57507f46000000000000000000000000000000000000000000000000000000000000007effffffffffffffffffffffffffffffffffffffffffffffffffffffffffffff19168260f81b7effffffffffffffffffffffffffffffffffffffffffffffffffffffffffffff191611155b15610f30577f410000000000000000000000000000000000000000000000000000000000000060f81c82600a01039050610f31565b5b919050565b828054600181600116156101000203166002900490600052602060002090601f016020900481019282601f10610f7757805160ff1916838001178555610fa5565b82800160010185558215610fa5579182015b82811115610fa4578251825591602001919060010190610f89565b5b509050610fb29190611036565b5090565b828054600181600116156101000203166002900490600052602060002090601f016020900481019282601f10610ff757805160ff1916838001178555611025565b82800160010185558215611025579182015b82811115611024578251825591602001919060010190611009565b5b5090506110329190611036565b5090565b5b8082111561104f576000816000905550600101611037565b5090565b60008135905061106281611a77565b92915050565b60008083601f84011261107a57600080fd5b8235905067ffffffffffffffff81111561109357600080fd5b6020830191508360208202830111156110ab57600080fd5b9250929050565b60008083601f8401126110c457600080fd5b8235905067ffffffffffffffff8111156110dd57600080fd5b6020830191508360208202830111156110f557600080fd5b9250929050565b60008083601f84011261110e57600080fd5b8235905067ffffffffffffffff81111561112757600080fd5b60208301915083600182028301111561113f57600080fd5b9250929050565b6000806020838503121561115957600080fd5b600083013567ffffffffffffffff81111561117357600080fd5b61117f858286016110fc565b92509250509250929050565b600080600080600080600080600080600060c08c8e0312156111ac57600080fd5b60008c013567ffffffffffffffff8111156111c657600080fd5b6111d28e828f016110fc565b9b509b505060208c013567ffffffffffffffff8111156111f157600080fd5b6111fd8e828f01611068565b995099505060408c013567ffffffffffffffff81111561121c57600080fd5b6112288e828f016110b2565b975097505060608c013567ffffffffffffffff81111561124757600080fd5b6112538e828f01611068565b955095505060808c013567ffffffffffffffff81111561127257600080fd5b61127e8e828f01611068565b935093505060a06112918e828f01611053565b9150509295989b509295989b9093969950565b6000806000806000606086880312156112bc57600080fd5b600086013567ffffffffffffffff8111156112d657600080fd5b6112e2888289016110fc565b9550955050602086013567ffffffffffffffff81111561130157600080fd5b61130d888289016110fc565b9350935050604061132088828901611053565b9150509295509295909350565b611336816119c1565b82525050565b600061134782611958565b611351818561197f565b9350611361818560208601611a0c565b61136a81611a59565b840191505092915050565b600061138082611958565b61138a8185611990565b935061139a818560208601611a0c565b80840191505092915050565b6000815460018116600081146113c357600181146113e95761142d565b607f60028304166113d4818761196e565b955060ff19831686526020860193505061142d565b600282046113f7818761196e565b955061140285611943565b60005b8281101561142457815481890152600182019150602081019050611405565b80880195505050505b505092915050565b6000611441838561199b565b935061144e8385846119fd565b61145783611a59565b840190509392505050565b600061146d82611963565b611477818561199b565b9350611487818560208601611a0c565b61149081611a59565b840191505092915050565b60006114a860208361199b565b91507f4f455353206461746120737472756374757265206973206e6f742076616c69646000830152602082019050919050565b60006114e860238361199b565b91507f4f70657261746f722077697468207075626c6963206b6579206e6f742065786960008301527f73747300000000000000000000000000000000000000000000000000000000006020830152604082019050919050565b600061154e602d8361199b565b91507f56616c696461746f7220776974682073616d65207075626c6963206b6579206160008301527f6c726561647920657869737473000000000000000000000000000000000000006020830152604082019050919050565b60006115b4602c8361199b565b91507f4f70657261746f7220776974682073616d65207075626c6963206b657920616c60008301527f72656164792065786973747300000000000000000000000000000000000000006020830152604082019050919050565b600061161a600e836119ac565b91507f6f6573732d736570617261746f720000000000000000000000000000000000006000830152600e82019050919050565b6000608083016000808401858303600087015261166a83826113a6565b9250506001840154905061167d81611a3f565b61168a60208701826116c8565b506002840185830360408701526116a183826113a6565b9250506003840185830360608701526116ba83826113a6565b925050819250505092915050565b6116d1816119f3565b82525050565b6116e0816119f3565b82525050565b60006116f28284611375565b915081905092915050565b60006117098285611375565b91506117148261160d565b91506117208284611375565b91508190509392505050565b60006060820190508181036000830152611746818661133c565b9050611755602083018561132d565b8181036040830152611767818461133c565b9050949350505050565b6000602082019050818103600083015261178c818486611435565b90509392505050565b600060608201905081810360008301526117b0818688611435565b905081810360208301526117c4818561133c565b90506117d3604083018461132d565b95945050505050565b600060808201905081810360008301526117f68187611462565b9050818103602083015261180a818661133c565b905061181960408301856116d7565b611826606083018461132d565b95945050505050565b600060208201905081810360008301526118488161149b565b9050919050565b60006020820190508181036000830152611868816114db565b9050919050565b6000602082019050818103600083015261188881611541565b9050919050565b600060208201905081810360008301526118a8816115a7565b9050919050565b600060208201905081810360008301526118c9818461164d565b905092915050565b60006020820190506118e660008301846116d7565b92915050565b6000808335600160200384360303811261190557600080fd5b80840192508235915067ffffffffffffffff82111561192357600080fd5b60208301925060018202360383131561193b57600080fd5b509250929050565b60008190508160005260206000209050919050565b600081519050919050565b600081519050919050565b600082825260208201905092915050565b600082825260208201905092915050565b600081905092915050565b600082825260208201905092915050565b600081905092915050565b6000819050919050565b60006119cc826119d3565b9050919050565b600073ffffffffffffffffffffffffffffffffffffffff82169050919050565b6000819050919050565b82818337600083830152505050565b60005b83811015611a2a578082015181840152602081019050611a0f565b83811115611a39576000848401525b50505050565b6000611a52611a4d83611a6a565b6119b7565b9050919050565b6000601f19601f8301169050919050565b60008160001c9050919050565b611a80816119c1565b8114611a8b57600080fd5b5056fea264697066735822122099461494720ca473587b53866f241ca37000e6fc69ebad534fcf1f15e9debb6c64736f6c63430007030033",
  "linkReferences": {},
  "deployedLinkReferences": {}
}