{
  "_format": "hh-sol-artifact-1",
  "contractName": "SSVNetwork",
  "sourceName": "contracts/SSVNetwork.sol",
  "abi": [
    {
      "anonymous": false,
      "inputs": [
        {
          "indexed": false,
          "internalType": "string",
          "name": "name",
          "type": "string"
        },
        {
          "indexed": false,
          "internalType": "bytes",
          "name": "pubkey",
          "type": "bytes"
        },
        {
          "indexed": false,
          "internalType": "address",
          "name": "paymentAddress",
          "type": "address"
        }
      ],
      "name": "OperatorAdded",
      "type": "event"
    },
    {
      "inputs": [
        {
          "internalType": "string",
          "name": "_name",
          "type": "string"
        },
        {
          "internalType": "string",
          "name": "_pubkey",
          "type": "string"
        },
        {
          "internalType": "address",
          "name": "_paymentAddress",
          "type": "address"
        }
      ],
      "name": "addOperator",
      "outputs": [],
      "stateMutability": "nonpayable",
      "type": "function"
    },
    {
      "inputs": [],
      "name": "operatorCount",
      "outputs": [
        {
          "internalType": "uint256",
          "name": "",
          "type": "uint256"
        }
      ],
      "stateMutability": "view",
      "type": "function"
    }
  ],
  "bytecode": "0x608060405234801561001057600080fd5b50610688806100206000396000f3fe608060405234801561001057600080fd5b50600436106100365760003560e01c80637c6f31581461003b5780637dc0997a14610059575b600080fd5b610043610147565b6040518082815260200191505060405180910390f35b6101456004803603606081101561006f57600080fd5b810190808035906020019064010000000081111561008c57600080fd5b82018360208201111561009e57600080fd5b803590602001918460018302840111640100000000831117156100c057600080fd5b9091929391929390803590602001906401000000008111156100e157600080fd5b8201836020820111156100f357600080fd5b8035906020019184600183028401116401000000008311171561011557600080fd5b9091929391929390803573ffffffffffffffffffffffffffffffffffffffff16906020019092919050505061014d565b005b60005481565b606083838080601f016020809104026020016040519081016040528093929190818152602001838380828437600081840152601f19601f8201169050808301925050505050505090506001816040518082805190602001908083835b602083106101cc57805182526020820191506020810190506020830392506101a9565b6001836020036101000a038019825116818451168082178552505050505050905001915050908152602001604051809103902060030160149054906101000a900460ff1615610266576040517f08c379a000000000000000000000000000000000000000000000000000000000815260040180806020018281038252602c815260200180610627602c913960400191505060405180910390fd5b6040518060a0016040528087878080601f016020809104026020016040519081016040528093929190818152602001838380828437600081840152601f19601f820116905080830192505050505050508152602001828152602001600081526020018373ffffffffffffffffffffffffffffffffffffffff168152602001600115158152506001826040518082805190602001908083835b6020831061032157805182526020820191506020810190506020830392506102fe565b6001836020036101000a03801982511681845116808217855250505050505090500191505090815260200160405180910390206000820151816000019080519060200190610370929190610509565b50602082015181600101908051906020019061038d929190610589565b506040820151816002015560608201518160030160006101000a81548173ffffffffffffffffffffffffffffffffffffffff021916908373ffffffffffffffffffffffffffffffffffffffff16021790555060808201518160030160146101000a81548160ff0219169083151502179055509050507fb4d5af90c36922d787dd770fafde663be568bd81026a5dba53b2c295ef291e9a868683856040518080602001806020018473ffffffffffffffffffffffffffffffffffffffff1681526020018381038352878782818152602001925080828437600081840152601f19601f820116905080830192505050838103825285818151815260200191508051906020019080838360005b838110156104b2578082015181840152602081019050610497565b50505050905090810190601f1680156104df5780820380516001836020036101000a031916815260200191505b50965050505050505060405180910390a16000808154809291906001019190505550505050505050565b828054600181600116156101000203166002900490600052602060002090601f016020900481019282601f1061054a57805160ff1916838001178555610578565b82800160010185558215610578579182015b8281111561057757825182559160200191906001019061055c565b5b5090506105859190610609565b5090565b828054600181600116156101000203166002900490600052602060002090601f016020900481019282601f106105ca57805160ff19168380011785556105f8565b828001600101855582156105f8579182015b828111156105f75782518255916020019190600101906105dc565b5b5090506106059190610609565b5090565b5b8082111561062257600081600090555060010161060a565b509056fe4f70657261746f7220776974682073616d65207075626c6963206b657920616c726561647920657869737473a2646970667358221220bbb0ee07893b0eb5bb7556ee9749fe25ff1d2f9606652dc1ba26a2a5c4d5b49764736f6c63430007030033",
  "linkReferences": {},
  "deployedLinkReferences": {}
}