{
  "_format": "hh-sol-artifact-1",
  "contractName": "OperatorRegistry",
  "sourceName": "contracts/OperatorRegistry.sol",
  "abi": [
    {
      "anonymous": false,
      "inputs": [
        {
          "indexed": false,
          "internalType": "string",
          "name": "name",
          "type": "string"
        },
        {
          "indexed": false,
          "internalType": "address",
          "name": "ownerAddress",
          "type": "address"
        },
        {
          "indexed": false,
          "internalType": "bytes",
          "name": "publicKey",
          "type": "bytes"
        }
      ],
      "name": "OperatorAdded",
      "type": "event"
    },
    {
      "inputs": [
        {
          "internalType": "string",
          "name": "_name",
          "type": "string"
        },
        {
          "internalType": "address",
          "name": "_ownerAddress",
          "type": "address"
        },
        {
          "internalType": "bytes",
          "name": "_publicKey",
          "type": "bytes"
        }
      ],
      "name": "addOperator",
      "outputs": [],
      "stateMutability": "nonpayable",
      "type": "function"
    },
    {
      "inputs": [],
      "name": "operatorCount",
      "outputs": [
        {
          "internalType": "uint256",
          "name": "",
          "type": "uint256"
        }
      ],
      "stateMutability": "view",
      "type": "function"
    },
    {
      "inputs": [
        {
          "internalType": "bytes",
          "name": "",
          "type": "bytes"
        }
      ],
      "name": "operators",
      "outputs": [
        {
          "internalType": "string",
          "name": "name",
          "type": "string"
        },
        {
          "internalType": "address",
          "name": "ownerAddress",
          "type": "address"
        },
        {
          "internalType": "bytes",
          "name": "publicKey",
          "type": "bytes"
        },
        {
          "internalType": "uint256",
          "name": "score",
          "type": "uint256"
        }
      ],
      "stateMutability": "view",
      "type": "function"
    }
  ],
  "bytecode": "0x608060405234801561001057600080fd5b506107d6806100206000396000f3fe608060405234801561001057600080fd5b50600436106100405760003560e01c8062f43a66146100455780634330dd701461005a5780637c6f315814610086575b600080fd5b61005861005336600461058f565b61009d565b005b61006d6100683660046104e5565b6102b3565b60405161007d94939291906106e2565b60405180910390f35b61008f60005481565b60405190815260200161007d565b60006001600160a01b0316600183836040516100ba929190610690565b908152604051908190036020019020600101546001600160a01b03161461013c5760405162461bcd60e51b815260206004820152602c60248201527f4f70657261746f7220776974682073616d65207075626c6963206b657920616c60448201526b72656164792065786973747360a01b606482015260840160405180910390fd5b604051806080016040528086868080601f0160208091040260200160405190810160405280939291908181526020018383808284376000920191909152505050908252506001600160a01b03851660208083019190915260408051601f8601839004830281018301825285815292019190859085908190840183828082843760009201829052509385525050506020909101526040516001906101e29085908590610690565b9081526020016040518091039020600082015181600001908051906020019061020c929190610405565b506020828101516001830180546001600160a01b0319166001600160a01b039092169190911790556040830151805161024b9260028501920190610405565b50606082015181600301559050507f39b34f12d0a1eb39d220d2acd5e293c894753a36ac66da43b832c9f1fdb8254e85858585856040516102909594939291906106a0565b60405180910390a16000805490806102a783610763565b91905055505050505050565b80516020818301810180516001825292820191909301209152805481906102d990610728565b80601f016020809104026020016040519081016040528092919081815260200182805461030590610728565b80156103525780601f1061032757610100808354040283529160200191610352565b820191906000526020600020905b81548152906001019060200180831161033557829003601f168201915b505050600184015460028501805494956001600160a01b0390921694919350915061037c90610728565b80601f01602080910402602001604051908101604052809291908181526020018280546103a890610728565b80156103f55780601f106103ca576101008083540402835291602001916103f5565b820191906000526020600020905b8154815290600101906020018083116103d857829003601f168201915b5050505050908060030154905084565b82805461041190610728565b90600052602060002090601f0160209004810192826104335760008555610479565b82601f1061044c57805160ff1916838001178555610479565b82800160010185558215610479579182015b8281111561047957825182559160200191906001019061045e565b50610485929150610489565b5090565b5b80821115610485576000815560010161048a565b60008083601f8401126104af578081fd5b50813567ffffffffffffffff8111156104c6578182fd5b6020830191508360208285010111156104de57600080fd5b9250929050565b6000602082840312156104f6578081fd5b813567ffffffffffffffff8082111561050d578283fd5b818401915084601f830112610520578283fd5b8135818111156105325761053261078a565b604051601f8201601f19908116603f0116810190838211818310171561055a5761055a61078a565b81604052828152876020848701011115610572578586fd5b826020860160208301379182016020019490945295945050505050565b6000806000806000606086880312156105a6578081fd5b853567ffffffffffffffff808211156105bd578283fd5b6105c989838a0161049e565b9097509550602088013591506001600160a01b03821682146105e9578283fd5b909350604087013590808211156105fe578283fd5b5061060b8882890161049e565b969995985093965092949392505050565b81835281816020850137506000828201602090810191909152601f909101601f19169091010190565b60008151808452815b8181101561066a5760208185018101518683018201520161064e565b8181111561067b5782602083870101525b50601f01601f19169290920160200192915050565b8183823760009101908152919050565b6060815260006106b460608301878961061c565b6001600160a01b038616602084015282810360408401526106d681858761061c565b98975050505050505050565b6080815260006106f56080830187610645565b6001600160a01b038616602084015282810360408401526107168186610645565b91505082606083015295945050505050565b600181811c9082168061073c57607f821691505b6020821081141561075d57634e487b7160e01b600052602260045260246000fd5b50919050565b600060001982141561078357634e487b7160e01b81526011600452602481fd5b5060010190565b634e487b7160e01b600052604160045260246000fdfea2646970667358221220530074f90c0ff3ecd4e2ee237474272aa147efb370013a458dc2765d3b21425b64736f6c63430008040033",
  "linkReferences": {},
  "deployedLinkReferences": {}
}