{
  "_format": "hh-sol-artifact-1",
  "contractName": "OperatorRegistry",
  "sourceName": "contracts/OperatorRegistry.sol",
  "abi": [
    {
      "anonymous": false,
      "inputs": [
        {
          "indexed": false,
          "internalType": "string",
          "name": "name",
          "type": "string"
        },
        {
          "indexed": false,
          "internalType": "address",
          "name": "ownerAddress",
          "type": "address"
        },
        {
          "indexed": false,
          "internalType": "bytes",
          "name": "publicKey",
          "type": "bytes"
        }
      ],
      "name": "OperatorAdded",
      "type": "event"
    },
    {
      "inputs": [
        {
          "internalType": "string",
          "name": "_name",
          "type": "string"
        },
        {
          "internalType": "address",
          "name": "_ownerAddress",
          "type": "address"
        },
        {
          "internalType": "bytes",
          "name": "_publicKey",
          "type": "bytes"
        }
      ],
      "name": "addOperator",
      "outputs": [],
      "stateMutability": "nonpayable",
      "type": "function"
    },
    {
      "inputs": [],
      "name": "operatorCount",
      "outputs": [
        {
          "internalType": "uint256",
          "name": "",
          "type": "uint256"
        }
      ],
      "stateMutability": "view",
      "type": "function"
    }
  ],
  "bytecode": "0x608060405234801561001057600080fd5b50610500806100206000396000f3fe608060405234801561001057600080fd5b50600436106100355760003560e01c8062f43a661461003a5780637c6f31581461004f575b600080fd5b61004d610048366004610360565b61006a565b005b61005860005481565b60405190815260200160405180910390f35b60006001600160a01b031660018383604051610087929190610416565b908152604051908190036020019020600101546001600160a01b0316146101095760405162461bcd60e51b815260206004820152602c60248201527f4f70657261746f7220776974682073616d65207075626c6963206b657920616c60448201526b72656164792065786973747360a01b606482015260840160405180910390fd5b604051806080016040528086868080601f0160208091040260200160405190810160405280939291908181526020018383808284376000920191909152505050908252506001600160a01b03851660208083019190915260408051601f8601839004830281018301825285815292019190859085908190840183828082843760009201829052509385525050506020909101526040516001906101af9085908590610416565b908152602001604051809103902060008201518160000190805190602001906101d9929190610280565b506020828101516001830180546001600160a01b0319166001600160a01b03909216919091179055604083015180516102189260028501920190610280565b50606082015181600301559050507f39b34f12d0a1eb39d220d2acd5e293c894753a36ac66da43b832c9f1fdb8254e858585858560405161025d959493929190610426565b60405180910390a1600080549080610274836104a3565b91905055505050505050565b82805461028c90610468565b90600052602060002090601f0160209004810192826102ae57600085556102f4565b82601f106102c757805160ff19168380011785556102f4565b828001600101855582156102f4579182015b828111156102f45782518255916020019190600101906102d9565b50610300929150610304565b5090565b5b808211156103005760008155600101610305565b60008083601f84011261032a578182fd5b50813567ffffffffffffffff811115610341578182fd5b60208301915083602082850101111561035957600080fd5b9250929050565b600080600080600060608688031215610377578081fd5b853567ffffffffffffffff8082111561038e578283fd5b61039a89838a01610319565b9097509550602088013591506001600160a01b03821682146103ba578283fd5b909350604087013590808211156103cf578283fd5b506103dc88828901610319565b969995985093965092949392505050565b81835281816020850137506000828201602090810191909152601f909101601f19169091010190565b8183823760009101908152919050565b60608152600061043a6060830187896103ed565b6001600160a01b0386166020840152828103604084015261045c8185876103ed565b98975050505050505050565b600181811c9082168061047c57607f821691505b6020821081141561049d57634e487b7160e01b600052602260045260246000fd5b50919050565b60006000198214156104c357634e487b7160e01b81526011600452602481fd5b506001019056fea26469706673582212206405573322df00856fc20e209662f2902a7817a8d5954181950214b1b1d8645064736f6c63430008040033",
  "linkReferences": {},
  "deployedLinkReferences": {}
}