{
  "_format": "hh-sol-artifact-1",
  "contractName": "SSVNetworkV2",
  "sourceName": "contracts/SSVNetworkV2.sol",
  "abi": [
    {
      "anonymous": false,
      "inputs": [
        {
          "indexed": false,
          "internalType": "string",
          "name": "name",
          "type": "string"
        },
        {
          "indexed": false,
          "internalType": "bytes",
          "name": "pubkey",
          "type": "bytes"
        },
        {
          "indexed": false,
          "internalType": "address",
          "name": "paymentAddress",
          "type": "address"
        }
      ],
      "name": "OperatorAdded",
      "type": "event"
    },
    {
      "anonymous": false,
      "inputs": [
        {
          "indexed": false,
          "internalType": "bytes",
          "name": "pubkey",
          "type": "bytes"
        },
        {
          "indexed": false,
          "internalType": "address",
          "name": "ownerAddress",
          "type": "address"
        },
        {
          "indexed": false,
          "internalType": "bytes",
          "name": "oess",
          "type": "bytes"
        }
      ],
      "name": "ValidatorAdded",
      "type": "event"
    },
    {
      "inputs": [
        {
          "internalType": "string",
          "name": "_name",
          "type": "string"
        },
        {
          "internalType": "string",
          "name": "_pubkey",
          "type": "string"
        },
        {
          "internalType": "address",
          "name": "_paymentAddress",
          "type": "address"
        }
      ],
      "name": "addOperator",
      "outputs": [],
      "stateMutability": "nonpayable",
      "type": "function"
    },
    {
      "inputs": [
        {
          "internalType": "string",
          "name": "pubkey",
          "type": "string"
        },
        {
          "internalType": "string[]",
          "name": "operatorPubKeys",
          "type": "string[]"
        },
        {
          "internalType": "uint256[]",
          "name": "indexes",
          "type": "uint256[]"
        },
        {
          "internalType": "string[]",
          "name": "sharePubKeys",
          "type": "string[]"
        },
        {
          "internalType": "string[]",
          "name": "encryptedKeys",
          "type": "string[]"
        },
        {
          "internalType": "address",
          "name": "ownerAddress",
          "type": "address"
        }
      ],
      "name": "addValidator",
      "outputs": [],
      "stateMutability": "nonpayable",
      "type": "function"
    },
    {
      "inputs": [
        {
          "internalType": "uint8",
          "name": "c",
          "type": "uint8"
        }
      ],
      "name": "fromHexChar",
      "outputs": [
        {
          "internalType": "uint8",
          "name": "",
          "type": "uint8"
        }
      ],
      "stateMutability": "pure",
      "type": "function"
    },
    {
      "inputs": [],
      "name": "operatorCount",
      "outputs": [
        {
          "internalType": "uint256",
          "name": "",
          "type": "uint256"
        }
      ],
      "stateMutability": "view",
      "type": "function"
    },
    {
      "inputs": [],
      "name": "validatorCount",
      "outputs": [
        {
          "internalType": "uint256",
          "name": "",
          "type": "uint256"
        }
      ],
      "stateMutability": "view",
      "type": "function"
    }
  ],
  "bytecode": "0x608060405234801561001057600080fd5b5061173e806100206000396000f3fe608060405234801561001057600080fd5b50600436106100575760003560e01c80630f43a6771461005c5780632ecb20d31461007a5780637c6f3158146100aa5780637dc0997a146100c85780638a24570f146100e4575b600080fd5b610064610100565b6040516100719190611517565b60405180910390f35b610094600480360381019061008f919061104d565b610106565b6040516100a19190611532565b60405180910390f35b6100b2610444565b6040516100bf9190611517565b60405180910390f35b6100e260048036038101906100dd9190610fc4565b61044a565b005b6100fe60048036038101906100f99190610eab565b6106a9565b005b60025481565b60007f30000000000000000000000000000000000000000000000000000000000000007effffffffffffffffffffffffffffffffffffffffffffffffffffffffffffff19168260f81b7effffffffffffffffffffffffffffffffffffffffffffffffffffffffffffff1916101580156101e657507f39000000000000000000000000000000000000000000000000000000000000007effffffffffffffffffffffffffffffffffffffffffffffffffffffffffffff19168260f81b7effffffffffffffffffffffffffffffffffffffffffffffffffffffffffffff191611155b15610218577f300000000000000000000000000000000000000000000000000000000000000060f81c8203905061043f565b7f61000000000000000000000000000000000000000000000000000000000000007effffffffffffffffffffffffffffffffffffffffffffffffffffffffffffff19168260f81b7effffffffffffffffffffffffffffffffffffffffffffffffffffffffffffff1916101580156102f657507f66000000000000000000000000000000000000000000000000000000000000007effffffffffffffffffffffffffffffffffffffffffffffffffffffffffffff19168260f81b7effffffffffffffffffffffffffffffffffffffffffffffffffffffffffffff191611155b1561032b577f610000000000000000000000000000000000000000000000000000000000000060f81c82600a0103905061043f565b7f41000000000000000000000000000000000000000000000000000000000000007effffffffffffffffffffffffffffffffffffffffffffffffffffffffffffff19168260f81b7effffffffffffffffffffffffffffffffffffffffffffffffffffffffffffff19161015801561040957507f46000000000000000000000000000000000000000000000000000000000000007effffffffffffffffffffffffffffffffffffffffffffffffffffffffffffff19168260f81b7effffffffffffffffffffffffffffffffffffffffffffffffffffffffffffff191611155b1561043e577f410000000000000000000000000000000000000000000000000000000000000060f81c82600a0103905061043f565b5b919050565b60005481565b606083838080601f016020809104026020016040519081016040528093929190818152602001838380828437600081840152601f19601f8201169050808301925050505050505090506001816040516104a3919061139f565b908152602001604051809103902060030160149054906101000a900460ff1615610502576040517f08c379a00000000000000000000000000000000000000000000000000000000081526004016104f9906114d5565b60405180910390fd5b6040518060a0016040528087878080601f016020809104026020016040519081016040528093929190818152602001838380828437600081840152601f19601f820116905080830192505050505050508152602001828152602001600081526020018373ffffffffffffffffffffffffffffffffffffffff16815260200160011515815250600182604051610597919061139f565b908152602001604051809103902060008201518160000190805190602001906105c1929190610c86565b5060208201518160010190805190602001906105de929190610d06565b506040820151816002015560608201518160030160006101000a81548173ffffffffffffffffffffffffffffffffffffffff021916908373ffffffffffffffffffffffffffffffffffffffff16021790555060808201518160030160146101000a81548160ff0219169083151502179055509050507fb4d5af90c36922d787dd770fafde663be568bd81026a5dba53b2c295ef291e9a86868385604051610688949392919061144e565b60405180910390a16000808154809291906001019190505550505050505050565b60606106f88c8c8080601f016020809104026020016040519081016040528093929190818152602001838380828437600081840152601f19601f82011690508083019250505050505050610b53565b905060308151148c8c9091610744576040517f08c379a000000000000000000000000000000000000000000000000000000000815260040161073b92919061142a565b60405180910390fd5b5050858590508a8a905014801561076057508383905086869050145b801561077157508383905088889050145b6107b0576040517f08c379a00000000000000000000000000000000000000000000000000000000081526004016107a790611495565b60405180910390fd5b6003816040516107c0919061139f565b908152602001604051809103902060020160149054906101000a900460ff161561081f576040517f08c379a0000000000000000000000000000000000000000000000000000000008152600401610816906114b5565b60405180910390fd5b6000600382604051610831919061139f565b9081526020016040518091039020905081816000019080519060200190610859929190610d06565b50828160020160006101000a81548173ffffffffffffffffffffffffffffffffffffffff021916908373ffffffffffffffffffffffffffffffffffffffff160217905550606060005b8c8c9050811015610af55760405180608001604052806109218f8f858181106108c757fe5b90506020028101906108d9919061154d565b8080601f016020809104026020016040519081016040528093929190818152602001838380828437600081840152601f19601f82011690508083019250505050505050610b53565b81526020018c8c8481811061093257fe5b9050602002013581526020016109a78b8b8581811061094d57fe5b905060200281019061095f919061154d565b8080601f016020809104026020016040519081016040528093929190818152602001838380828437600081840152601f19601f82011690508083019250505050505050610b53565b8152602001610a158989858181106109bb57fe5b90506020028101906109cd919061154d565b8080601f016020809104026020016040519081016040528093929190818152602001838380828437600081840152601f19601f82011690508083019250505050505050610b53565b8152508360010160008381526020019081526020016000206000820151816000019080519060200190610a49929190610d06565b50602082015181600101556040820151816002019080519060200190610a70929190610d06565b506060820151816003019080519060200190610a8d929190610d06565b5090505081836001016000838152602001908152602001600020604051602001610ab791906114f5565b604051602081830303815290604052604051602001610ad79291906113b6565b604051602081830303815290604052915080806001019150506108a2565b507ffdf8305799107ea69c8d651b474b032adeb4043c581b0a2efe3ee85f8923b9f5838583604051610b29939291906113e5565b60405180910390a16002600081548092919060010191905055505050505050505050505050505050565b60608082905060006002825181610b6657fe5b0614610b7157600080fd5b60606002825181610b7e57fe5b0467ffffffffffffffff81118015610b9557600080fd5b506040519080825280601f01601f191660200182016040528015610bc85781602001600182028036833780820191505090505b50905060005b6002835181610bd957fe5b04811015610c7b57610c09836001836002020181518110610bf657fe5b602001015160f81c60f81b60f81c610106565b6010610c30858460020281518110610c1d57fe5b602001015160f81c60f81b60f81c610106565b020160f81b828281518110610c4157fe5b60200101907effffffffffffffffffffffffffffffffffffffffffffffffffffffffffffff1916908160001a905350806001019050610bce565b508092505050919050565b828054600181600116156101000203166002900490600052602060002090601f016020900481019282601f10610cc757805160ff1916838001178555610cf5565b82800160010185558215610cf5579182015b82811115610cf4578251825591602001919060010190610cd9565b5b509050610d029190610d86565b5090565b828054600181600116156101000203166002900490600052602060002090601f016020900481019282601f10610d4757805160ff1916838001178555610d75565b82800160010185558215610d75579182015b82811115610d74578251825591602001919060010190610d59565b5b509050610d829190610d86565b5090565b5b80821115610d9f576000816000905550600101610d87565b5090565b600081359050610db2816116da565b92915050565b60008083601f840112610dca57600080fd5b8235905067ffffffffffffffff811115610de357600080fd5b602083019150836020820283011115610dfb57600080fd5b9250929050565b60008083601f840112610e1457600080fd5b8235905067ffffffffffffffff811115610e2d57600080fd5b602083019150836020820283011115610e4557600080fd5b9250929050565b60008083601f840112610e5e57600080fd5b8235905067ffffffffffffffff811115610e7757600080fd5b602083019150836001820283011115610e8f57600080fd5b9250929050565b600081359050610ea5816116f1565b92915050565b600080600080600080600080600080600060c08c8e031215610ecc57600080fd5b60008c013567ffffffffffffffff811115610ee657600080fd5b610ef28e828f01610e4c565b9b509b505060208c013567ffffffffffffffff811115610f1157600080fd5b610f1d8e828f01610db8565b995099505060408c013567ffffffffffffffff811115610f3c57600080fd5b610f488e828f01610e02565b975097505060608c013567ffffffffffffffff811115610f6757600080fd5b610f738e828f01610db8565b955095505060808c013567ffffffffffffffff811115610f9257600080fd5b610f9e8e828f01610db8565b935093505060a0610fb18e828f01610da3565b9150509295989b509295989b9093969950565b600080600080600060608688031215610fdc57600080fd5b600086013567ffffffffffffffff811115610ff657600080fd5b61100288828901610e4c565b9550955050602086013567ffffffffffffffff81111561102157600080fd5b61102d88828901610e4c565b9350935050604061104088828901610da3565b9150509295509295909350565b60006020828403121561105f57600080fd5b600061106d84828501610e96565b91505092915050565b61107f81611617565b82525050565b6000611090826115b9565b61109a81856115d5565b93506110aa81856020860161166f565b6110b3816116bc565b840191505092915050565b60006110c9826115b9565b6110d381856115e6565b93506110e381856020860161166f565b80840191505092915050565b60008154600181166000811461110c576001811461113257611176565b607f600283041661111d81876115c4565b955060ff198316865260208601935050611176565b6002820461114081876115c4565b955061114b856115a4565b60005b8281101561116d5781548189015260018201915060208101905061114e565b80880195505050505b505092915050565b600061118a83856115f1565b9350611197838584611660565b6111a0836116bc565b840190509392505050565b60006111b86020836115f1565b91507f4f455353206461746120737472756374757265206973206e6f742076616c69646000830152602082019050919050565b60006111f8602d836115f1565b91507f56616c696461746f7220776974682073616d65207075626c6963206b6579206160008301527f6c726561647920657869737473000000000000000000000000000000000000006020830152604082019050919050565b600061125e602c836115f1565b91507f4f70657261746f7220776974682073616d65207075626c6963206b657920616c60008301527f72656164792065786973747300000000000000000000000000000000000000006020830152604082019050919050565b60006112c4600e83611602565b91507f6f6573732d736570617261746f720000000000000000000000000000000000006000830152600e82019050919050565b6000608083016000808401858303600087015261131483826110ef565b92505060018401549050611327816116a2565b6113346020870182611372565b5060028401858303604087015261134b83826110ef565b92505060038401858303606087015261136483826110ef565b925050819250505092915050565b61137b81611649565b82525050565b61138a81611649565b82525050565b61139981611653565b82525050565b60006113ab82846110be565b915081905092915050565b60006113c282856110be565b91506113cd826112b7565b91506113d982846110be565b91508190509392505050565b600060608201905081810360008301526113ff8186611085565b905061140e6020830185611076565b81810360408301526114208184611085565b9050949350505050565b6000602082019050818103600083015261144581848661117e565b90509392505050565b6000606082019050818103600083015261146981868861117e565b9050818103602083015261147d8185611085565b905061148c6040830184611076565b95945050505050565b600060208201905081810360008301526114ae816111ab565b9050919050565b600060208201905081810360008301526114ce816111eb565b9050919050565b600060208201905081810360008301526114ee81611251565b9050919050565b6000602082019050818103600083015261150f81846112f7565b905092915050565b600060208201905061152c6000830184611381565b92915050565b60006020820190506115476000830184611390565b92915050565b6000808335600160200384360303811261156657600080fd5b80840192508235915067ffffffffffffffff82111561158457600080fd5b60208301925060018202360383131561159c57600080fd5b509250929050565b60008190508160005260206000209050919050565b600081519050919050565b600082825260208201905092915050565b600082825260208201905092915050565b600081905092915050565b600082825260208201905092915050565b600081905092915050565b6000819050919050565b600061162282611629565b9050919050565b600073ffffffffffffffffffffffffffffffffffffffff82169050919050565b6000819050919050565b600060ff82169050919050565b82818337600083830152505050565b60005b8381101561168d578082015181840152602081019050611672565b8381111561169c576000848401525b50505050565b60006116b56116b0836116cd565b61160d565b9050919050565b6000601f19601f8301169050919050565b60008160001c9050919050565b6116e381611617565b81146116ee57600080fd5b50565b6116fa81611653565b811461170557600080fd5b5056fea2646970667358221220c7f8b71c13347a13fbbb84450c1b0dcccada058f53d7a4e88ef5d0ffeb366f2a64736f6c63430007030033",
  "linkReferences": {},
  "deployedLinkReferences": {}
}