{
  "_format": "hh-sol-artifact-1",
  "contractName": "SSVNetworkV2",
  "sourceName": "contracts/SSVNetworkV2.sol",
  "abi": [
    {
      "anonymous": false,
      "inputs": [
        {
          "indexed": false,
          "internalType": "string",
          "name": "name",
          "type": "string"
        },
        {
          "indexed": false,
          "internalType": "bytes",
          "name": "pubkey",
          "type": "bytes"
        },
        {
          "indexed": false,
          "internalType": "address",
          "name": "paymentAddress",
          "type": "address"
        }
      ],
      "name": "OperatorAdded",
      "type": "event"
    },
    {
      "anonymous": false,
      "inputs": [
        {
          "indexed": false,
          "internalType": "bytes",
          "name": "pubkey",
          "type": "bytes"
        },
        {
          "indexed": false,
          "internalType": "address",
          "name": "ownerAddress",
          "type": "address"
        }
      ],
      "name": "ValidatorAdded",
      "type": "event"
    },
    {
      "inputs": [
        {
          "internalType": "string",
          "name": "_name",
          "type": "string"
        },
        {
          "internalType": "string",
          "name": "_pubkey",
          "type": "string"
        },
        {
          "internalType": "address",
          "name": "_paymentAddress",
          "type": "address"
        }
      ],
      "name": "addOperator",
      "outputs": [],
      "stateMutability": "nonpayable",
      "type": "function"
    },
    {
      "inputs": [
        {
          "internalType": "string",
          "name": "pubkey",
          "type": "string"
        },
        {
          "internalType": "string[]",
          "name": "operatorPubKeys",
          "type": "string[]"
        },
        {
          "internalType": "uint256[]",
          "name": "indexes",
          "type": "uint256[]"
        },
        {
          "internalType": "string[]",
          "name": "sharePubKeys",
          "type": "string[]"
        },
        {
          "internalType": "string[]",
          "name": "encryptedKeys",
          "type": "string[]"
        },
        {
          "internalType": "address",
          "name": "ownerAddress",
          "type": "address"
        }
      ],
      "name": "addValidator",
      "outputs": [],
      "stateMutability": "nonpayable",
      "type": "function"
    },
    {
      "inputs": [
        {
          "internalType": "string",
          "name": "s",
          "type": "string"
        }
      ],
      "name": "fromHex",
      "outputs": [
        {
          "internalType": "bytes",
          "name": "",
          "type": "bytes"
        }
      ],
      "stateMutability": "pure",
      "type": "function"
    },
    {
      "inputs": [
        {
          "internalType": "uint8",
          "name": "c",
          "type": "uint8"
        }
      ],
      "name": "fromHexChar",
      "outputs": [
        {
          "internalType": "uint8",
          "name": "",
          "type": "uint8"
        }
      ],
      "stateMutability": "pure",
      "type": "function"
    },
    {
      "inputs": [],
      "name": "operatorCount",
      "outputs": [
        {
          "internalType": "uint256",
          "name": "",
          "type": "uint256"
        }
      ],
      "stateMutability": "view",
      "type": "function"
    },
    {
      "inputs": [],
      "name": "validatorCount",
      "outputs": [
        {
          "internalType": "uint256",
          "name": "",
          "type": "uint256"
        }
      ],
      "stateMutability": "view",
      "type": "function"
    }
  ],
  "bytecode": "0x608060405234801561001057600080fd5b50611616806100206000396000f3fe608060405234801561001057600080fd5b50600436106100625760003560e01c80630f43a677146100675780632ecb20d3146100855780637c6f3158146100b55780637dc0997a146100d35780638a24570f146100ef5780638e7e34d71461010b575b600080fd5b61006f61013b565b60405161007c91906113ee565b60405180910390f35b61009f600480360381019061009a91906110c1565b610141565b6040516100ac9190611409565b60405180910390f35b6100bd61047f565b6040516100ca91906113ee565b60405180910390f35b6100ed60048036038101906100e89190610ff7565b610485565b005b61010960048036038101906101049190610ede565b6106e4565b005b61012560048036038101906101209190611080565b610b32565b60405161013291906112d1565b60405180910390f35b60025481565b60007f30000000000000000000000000000000000000000000000000000000000000007effffffffffffffffffffffffffffffffffffffffffffffffffffffffffffff19168260f81b7effffffffffffffffffffffffffffffffffffffffffffffffffffffffffffff19161015801561022157507f39000000000000000000000000000000000000000000000000000000000000007effffffffffffffffffffffffffffffffffffffffffffffffffffffffffffff19168260f81b7effffffffffffffffffffffffffffffffffffffffffffffffffffffffffffff191611155b15610253577f300000000000000000000000000000000000000000000000000000000000000060f81c8203905061047a565b7f61000000000000000000000000000000000000000000000000000000000000007effffffffffffffffffffffffffffffffffffffffffffffffffffffffffffff19168260f81b7effffffffffffffffffffffffffffffffffffffffffffffffffffffffffffff19161015801561033157507f66000000000000000000000000000000000000000000000000000000000000007effffffffffffffffffffffffffffffffffffffffffffffffffffffffffffff19168260f81b7effffffffffffffffffffffffffffffffffffffffffffffffffffffffffffff191611155b15610366577f610000000000000000000000000000000000000000000000000000000000000060f81c82600a0103905061047a565b7f41000000000000000000000000000000000000000000000000000000000000007effffffffffffffffffffffffffffffffffffffffffffffffffffffffffffff19168260f81b7effffffffffffffffffffffffffffffffffffffffffffffffffffffffffffff19161015801561044457507f46000000000000000000000000000000000000000000000000000000000000007effffffffffffffffffffffffffffffffffffffffffffffffffffffffffffff19168260f81b7effffffffffffffffffffffffffffffffffffffffffffffffffffffffffffff191611155b15610479577f410000000000000000000000000000000000000000000000000000000000000060f81c82600a0103905061047a565b5b919050565b60005481565b606083838080601f016020809104026020016040519081016040528093929190818152602001838380828437600081840152601f19601f8201169050808301925050505050505090506001816040516104de91906112ba565b908152602001604051809103902060030160149054906101000a900460ff161561053d576040517f08c379a0000000000000000000000000000000000000000000000000000000008152600401610534906113ce565b60405180910390fd5b6040518060a0016040528087878080601f016020809104026020016040519081016040528093929190818152602001838380828437600081840152601f19601f820116905080830192505050505050508152602001828152602001600081526020018373ffffffffffffffffffffffffffffffffffffffff168152602001600115158152506001826040516105d291906112ba565b908152602001604051809103902060008201518160000190805190602001906105fc929190610c65565b506020820151816001019080519060200190610619929190610ce5565b506040820151816002015560608201518160030160006101000a81548173ffffffffffffffffffffffffffffffffffffffff021916908373ffffffffffffffffffffffffffffffffffffffff16021790555060808201518160030160146101000a81548160ff0219169083151502179055509050507fb4d5af90c36922d787dd770fafde663be568bd81026a5dba53b2c295ef291e9a868683856040516106c39493929190611347565b60405180910390a16000808154809291906001019190505550505050505050565b60606107338c8c8080601f016020809104026020016040519081016040528093929190818152602001838380828437600081840152601f19601f82011690508083019250505050505050610b32565b905060308151148c8c909161077f576040517f08c379a0000000000000000000000000000000000000000000000000000000008152600401610776929190611323565b60405180910390fd5b5050858590508a8a905014801561079b57508383905086869050145b80156107ac57508383905088889050145b6107eb576040517f08c379a00000000000000000000000000000000000000000000000000000000081526004016107e29061138e565b60405180910390fd5b6003816040516107fb91906112ba565b908152602001604051809103902060020160149054906101000a900460ff161561085a576040517f08c379a0000000000000000000000000000000000000000000000000000000008152600401610851906113ae565b60405180910390fd5b600060038260405161086c91906112ba565b9081526020016040518091039020905081816000019080519060200190610894929190610ce5565b50828160020160006101000a81548173ffffffffffffffffffffffffffffffffffffffff021916908373ffffffffffffffffffffffffffffffffffffffff16021790555060005b8b8b9050811015610ad757604051806080016040528061095a8e8e8581811061090057fe5b90506020028101906109129190611424565b8080601f016020809104026020016040519081016040528093929190818152602001838380828437600081840152601f19601f82011690508083019250505050505050610b32565b81526020018b8b8481811061096b57fe5b9050602002013581526020016109e08a8a8581811061098657fe5b90506020028101906109989190611424565b8080601f016020809104026020016040519081016040528093929190818152602001838380828437600081840152601f19601f82011690508083019250505050505050610b32565b8152602001610a4e8888858181106109f457fe5b9050602002810190610a069190611424565b8080601f016020809104026020016040519081016040528093929190818152602001838380828437600081840152601f19601f82011690508083019250505050505050610b32565b8152508260010160008381526020019081526020016000206000820151816000019080519060200190610a82929190610ce5565b50602082015181600101556040820151816002019080519060200190610aa9929190610ce5565b506060820151816003019080519060200190610ac6929190610ce5565b5090505080806001019150506108db565b507f6b974d5b3594c261b9e060fc3a55d539cb688cba2521488fb8e529b213bba39f8284604051610b099291906112f3565b60405180910390a160026000815480929190600101919050555050505050505050505050505050565b60608082905060006002825181610b4557fe5b0614610b5057600080fd5b60606002825181610b5d57fe5b0467ffffffffffffffff81118015610b7457600080fd5b506040519080825280601f01601f191660200182016040528015610ba75781602001600182028036833780820191505090505b50905060005b6002835181610bb857fe5b04811015610c5a57610be8836001836002020181518110610bd557fe5b602001015160f81c60f81b60f81c610141565b6010610c0f858460020281518110610bfc57fe5b602001015160f81c60f81b60f81c610141565b020160f81b828281518110610c2057fe5b60200101907effffffffffffffffffffffffffffffffffffffffffffffffffffffffffffff1916908160001a905350806001019050610bad565b508092505050919050565b828054600181600116156101000203166002900490600052602060002090601f016020900481019282601f10610ca657805160ff1916838001178555610cd4565b82800160010185558215610cd4579182015b82811115610cd3578251825591602001919060010190610cb8565b5b509050610ce19190610d65565b5090565b828054600181600116156101000203166002900490600052602060002090601f016020900481019282601f10610d2657805160ff1916838001178555610d54565b82800160010185558215610d54579182015b82811115610d53578251825591602001919060010190610d38565b5b509050610d619190610d65565b5090565b5b80821115610d7e576000816000905550600101610d66565b5090565b600081359050610d91816115b2565b92915050565b60008083601f840112610da957600080fd5b8235905067ffffffffffffffff811115610dc257600080fd5b602083019150836020820283011115610dda57600080fd5b9250929050565b60008083601f840112610df357600080fd5b8235905067ffffffffffffffff811115610e0c57600080fd5b602083019150836020820283011115610e2457600080fd5b9250929050565b60008083601f840112610e3d57600080fd5b8235905067ffffffffffffffff811115610e5657600080fd5b602083019150836001820283011115610e6e57600080fd5b9250929050565b600082601f830112610e8657600080fd5b8135610e99610e94826114ac565b61147b565b91508082526020830160208301858383011115610eb557600080fd5b610ec083828461155d565b50505092915050565b600081359050610ed8816115c9565b92915050565b600080600080600080600080600080600060c08c8e031215610eff57600080fd5b60008c013567ffffffffffffffff811115610f1957600080fd5b610f258e828f01610e2b565b9b509b505060208c013567ffffffffffffffff811115610f4457600080fd5b610f508e828f01610d97565b995099505060408c013567ffffffffffffffff811115610f6f57600080fd5b610f7b8e828f01610de1565b975097505060608c013567ffffffffffffffff811115610f9a57600080fd5b610fa68e828f01610d97565b955095505060808c013567ffffffffffffffff811115610fc557600080fd5b610fd18e828f01610d97565b935093505060a0610fe48e828f01610d82565b9150509295989b509295989b9093969950565b60008060008060006060868803121561100f57600080fd5b600086013567ffffffffffffffff81111561102957600080fd5b61103588828901610e2b565b9550955050602086013567ffffffffffffffff81111561105457600080fd5b61106088828901610e2b565b9350935050604061107388828901610d82565b9150509295509295909350565b60006020828403121561109257600080fd5b600082013567ffffffffffffffff8111156110ac57600080fd5b6110b884828501610e75565b91505092915050565b6000602082840312156110d357600080fd5b60006110e184828501610ec9565b91505092915050565b6110f381611514565b82525050565b6000611104826114dc565b61110e81856114e7565b935061111e81856020860161156c565b611127816115a1565b840191505092915050565b600061113d826114dc565b61114781856114f8565b935061115781856020860161156c565b80840191505092915050565b600061116f8385611503565b935061117c83858461155d565b611185836115a1565b840190509392505050565b600061119d602083611503565b91507f4f455353206461746120737472756374757265206973206e6f742076616c69646000830152602082019050919050565b60006111dd602d83611503565b91507f56616c696461746f7220776974682073616d65207075626c6963206b6579206160008301527f6c726561647920657869737473000000000000000000000000000000000000006020830152604082019050919050565b6000611243602c83611503565b91507f4f70657261746f7220776974682073616d65207075626c6963206b657920616c60008301527f72656164792065786973747300000000000000000000000000000000000000006020830152604082019050919050565b6112a581611546565b82525050565b6112b481611550565b82525050565b60006112c68284611132565b915081905092915050565b600060208201905081810360008301526112eb81846110f9565b905092915050565b6000604082019050818103600083015261130d81856110f9565b905061131c60208301846110ea565b9392505050565b6000602082019050818103600083015261133e818486611163565b90509392505050565b60006060820190508181036000830152611362818688611163565b9050818103602083015261137681856110f9565b905061138560408301846110ea565b95945050505050565b600060208201905081810360008301526113a781611190565b9050919050565b600060208201905081810360008301526113c7816111d0565b9050919050565b600060208201905081810360008301526113e781611236565b9050919050565b6000602082019050611403600083018461129c565b92915050565b600060208201905061141e60008301846112ab565b92915050565b6000808335600160200384360303811261143d57600080fd5b80840192508235915067ffffffffffffffff82111561145b57600080fd5b60208301925060018202360383131561147357600080fd5b509250929050565b6000604051905081810181811067ffffffffffffffff821117156114a2576114a161159f565b5b8060405250919050565b600067ffffffffffffffff8211156114c7576114c661159f565b5b601f19601f8301169050602081019050919050565b600081519050919050565b600082825260208201905092915050565b600081905092915050565b600082825260208201905092915050565b600061151f82611526565b9050919050565b600073ffffffffffffffffffffffffffffffffffffffff82169050919050565b6000819050919050565b600060ff82169050919050565b82818337600083830152505050565b60005b8381101561158a57808201518184015260208101905061156f565b83811115611599576000848401525b50505050565bfe5b6000601f19601f8301169050919050565b6115bb81611514565b81146115c657600080fd5b50565b6115d281611550565b81146115dd57600080fd5b5056fea264697066735822122061b804adc2b7cec94712daa46c60b1974cd8419a4e71ecc1b0fe83059fb7ec3064736f6c63430007030033",
  "linkReferences": {},
  "deployedLinkReferences": {}
}